:020000040800F2
:100000000000012041950008E5010008F101000809
:10001000F9010008010200080902000800000000C0
:1000200000000000000000000000000011020008B5
:100030001D02000800000000290200083502000827
:100040008595000885950008859500088595000828
:100050008595000885950008859500088595000818
:100060008595000885950008859500088595000808
:1000700085950008859500088595000885950008F8
:1000800085950008859500088595000885950008E8
:1000900085950008859500088595000885950008D8
:1000A00085950008859500088595000885950008C8
:1000B00085950008859500088595000885950008B8
:1000C00085950008859500088595000885950008A8
:1000D0008595000885950008859500088595000898
:1000E0008595000885950008859500088595000888
:1000F0008595000885950008859500088595000878
:10010000859500084102000885950008859500083E
:100110008595000885950008859500088595000857
:100120008595000885950008859500088595000847
:1001300000000000000000000000000000000000BF
:1001400000000000000000000000000000000000AF
:10015000000000000000000000000000000000009F
:10016000000000000000000000000000000000008F
:10017000000000000000000000000000000000007F
:10018000000000000000000000000000000000006F
:10019000000000000000000000000000000000005F
:1001A000000000000000000000000000000000004F
:1001B000000000000000000000000000000000003F
:1001C000000000000000000000000000000000002F
:1001D000000000000000000000000000000000001F
:0401E0005FF8E0F1F3
:1001E40080B400AF00BFBD4680BC704780B400AF90
:1001F400FEE700BF80B400AFFEE700BF80B400AFED
:10020400FEE700BF80B400AFFEE700BF80B400AFDC
:1002140000BFBD4680BC704780B400AF00BFBD4680
:1002240080BC704780B400AF00BFBD4680BC70473F
:1002340080B400AF00BFBD4680BC704780B500AF3E
:1002440002F018FC00BF80BD80B500AF154A154B05
:100254001B6843F0010313601249124B5A68124B96
:1002640013404B600F4A0F4B1B6823F0847323F435
:10027400803313600B4A0B4B1B6823F480231360F9
:10028400084A084B5B6823F4FE035360054B4FF4A4
:100294001F029A6000F078F8044B4FF000629A60F5
:1002A40000BF80BD001002400000FFF800ED00E038
:1002B40080B485B000AF0023FB600023BB60002343
:1002C4007B602C4B5B6803F00C03FB60FB68042B26
:1002D40007D0082B09D0002B33D1274B274A1A60AB
:1002E40033E0254B254A1A602FE0224B5B6803F468
:1002F4007013BB601F4B5B6803F480337B60BB6887
:100304009B0C0233BB607B68002B06D1BB681C4A84
:1003140002FB03F3184A136017E0164B5B6803F4FF
:100324000033002B06D0BB68154A02FB03F3124AC4
:1003340013600AE0BB68114A02FB03F30E4A136020
:1003440003E00D4B0D4A1A6000BF0A4B5B6803F0D3
:10035400F0031B090B4AD35CDBB2FB60064B1A6843
:10036400FB6822FA03F3044A136000BF1437BD4646
:1003740080BC7047001002400000002000127A0088
:1003840000093D000400002080B500AF00F002F831
:1003940000BF80BD80B483B000AF00237B60002326
:1003A4003B603A4A394B1B6843F480331360374B44
:1003B4001B6803F400333B607B6801337B603B685C
:1003C400002B03D17B68B3F5A06FF0D12F4B1B68D2
:1003D40003F40033002B02D001233B6001E000232F
:1003E4003B603B68012B4BD1294A294B1B6843F0E6
:1003F40010031360264A264B1B6823F00303136083
:10040400234A234B1B6843F0020313601F4A1F4B0C
:100414005B6853601D4A1D4B5B6853601B4A1B4B52
:100424005B6843F480635360184A184B5B6823F499
:100434007C135360154A154B5B6843F4E81353600F
:10044400124A124B1B6843F08073136000BF0F4BBA
:100454001B6803F00073002BF9D00C4A0B4B5B684C
:1004640023F003035360094A084B5B6843F002031B
:10047400536000BF054B5B6803F00C03082BF9D1F4
:1004840000BF0C37BD4680BC704700BF001002405F
:100494000020024080B483B000AF78607B6802E043
:1004A4007B68013B7B607B68002BF9D100BF0C3774
:1004B400BD4680BC704700BF80B500AF00F008F8AF
:1004C40000F04EF800F088F800F09CF800BF80BD02
:1004D40080B582B000AF01214FF4807008F056F867
:1004E4000121682008F070F81023FB710323BB710D
:1004F4000223BB803B1D1946164807F09DF80223D2
:10050400BB803B1D1946144807F096F80323BB71C2
:100514001823FB714CF20373BB803B1D19460F4833
:1005240007F08AF84FF68073BB803B1D19460A48D2
:1005340007F082F84FF40B63BB803B1D1946074854
:1005440007F07AF80221034807F0A0F900BF083742
:10055400BD4680BD000C014000180140001401405C
:1005640080B596B000AF02233B6000237B60052377
:10057400BB600023FB6000233B6100237B614FF0E1
:100584008053BB610023FB6100237B6200233B6239
:100594001023BB620023FB6200237B630023FB6305
:1005A4000023BB634FF480533B6400237B6400232C
:1005B400BB640023FB643B463B653B467B6507F11C
:1005C4001C03184608F08AFB0121002008F0C6FD30
:1005D40000BF5837BD4680BD80B500AF0221084832
:1005E40007F054F940F6FF70FFF754FF0221044866
:1005F40007F03EF940F6FF70FFF74CFF00BF80BDE7
:100604000018014080B500AF4FF0C043CF221A80DC
:10061400934B00221A80924B81221A80904B3022F5
:100624001A804FF0C043ED221A808D4B64221A8049
:100634008B4B03221A808A4B12221A80884B812208
:100644001A804FF0C043E8221A80854B85221A8015
:10065400834B10221A80824B78221A804FF0C043B9
:10066400CB221A807E4B39221A807D4B2C221A8091
:100674007B4B00221A807A4B34221A80784B022258
:100684001A804FF0C043F7221A80754B20221A803B
:100694004FF0C043EA221A80714B00221A80704B3B
:1006A40000221A804FF0C043B1221A806C4B002202
:1006B4001A806B4B1B221A804FF0C043B6221A805B
:1006C400674B0A221A80664BA2221A804FF0C0435D
:1006D400C0221A80624B35221A804FF0C043C122D7
:1006E4001A805F4B11221A804FF0C043C5221A8032
:1006F4005B4B45221A805A4B45221A804FF0C04367
:10070400C7221A80564BA2221A804FF0C043F2220D
:100714001A80534B00221A804FF0C04326221A80BD
:100724004F4B01221A804FF0C043E0221A804C4BF9
:100734000F221A804A4B26221A80494B24221A80FF
:10074400474B0B221A80464B0E221A80444B092237
:100754001A80434B54221A80414BA8221A80404BE2
:1007640046221A803E4B0C221A803D4B17221A80D7
:100774003B4B09221A803A4B0F221A80384B0F2226
:100784001A80374B00221A804FF0C043E1221A80AE
:10079400334B00221A80324B19221A80304B1B2211
:1007A4001A802F4B04221A802D4B10221A802C4BB6
:1007B40007221A802A4B2A221A80294B47221A80A0
:1007C400274B39221A80264B03221A80244B0622F7
:1007D4001A80234B06221A80214B30221A80204B88
:1007E40038221A801E4B0F221A804FF0C043362243
:1007F4001A801B4BC8221A804FF0C0432A221A8049
:10080400174B00221A80164B00221A80144B002228
:100814001A80134BEF221A804FF0C0432B221A8008
:100824000F4B00221A800E4B00221A800C4B01221F
:100834001A800B4B3F221A804FF0C0433A221A8091
:10084400074B55221A804FF0C04311221A800548E5
:10085400FFF720FE4FF0C04329221A8000BF80BD5D
:1008640000000260FCBF020090B484B000AF0446F4
:10087400084611461A462346FB800346BB800B46B6
:100884007B8013463B800023FB604FF0C0432A2249
:100894001A802A4AFB881B0A9BB21380274BFA88CA
:1008A400D2B292B21A802549FA887B881344013B5C
:1008B4001B129BB20B802149FA887B8813449BB29C
:1008C400013B9BB2DBB29BB20B804FF0C0432B22A7
:1008D4001A801A4ABB881B0A9BB21380174BBA882A
:1008E400D2B292B21A801549BA883B881344013BAC
:1008F4001B129BB20B801149BA883B8813449BB2EC
:10090400013B9BB2DBB29BB20B804FF0C0432C2265
:100914001A8005E0094A3B8B1380FB680133FB60B6
:100924007B883A8802FB03F31A46FB689A42F1D8A3
:1009340000BF1037BD4690BC704700BF0000026086
:1009440080B483B000AF03460A46FB801346BB80E5
:100954004FF0C0432A221A80184AFB881B0A9BB214
:100964001380164BFA88D2B292B21A80134AFB88CB
:100974001B0A9BB21380114BFA88D2B292B21A802E
:100984004FF0C0432B221A800C4ABB881B0A9BB22F
:1009940013800A4BBA88D2B292B21A80074ABB8833
:1009A4001B0A9BB21380054BBA88D2B292B21A804A
:1009B40000BF0C37BD4680BC704700BF000002601A
:1009C40090B482B000AF0446084611461A46234646
:1009D400FB800346BB800B467B8013463B804FF075
:1009E400C0432A221A80204AFB881B0A9BB2138028
:1009F4001D4BFA88D2B292B21A801B49FA887B88BE
:100A04001344013B1B129BB20B801749FA887B8865
:100A140013449BB2013B9BB2DBB29BB20B804FF001
:100A2400C0432B221A80104ABB881B0A9BB2138036
:100A34000D4BBA88D2B292B21A800B49BA883B885D
:100A44001344013B1B129BB20B800749BA883B88B5
:100A540013449BB2013B9BB2DBB29BB20B8000BF41
:100A64000837BD4690BC70470000026080B582B074
:100A740000AF0346FB800B46BB8013467B80BA88DD
:100A8400FB8811461846FFF75BFF4FF0C0432C224A
:100A94001A80034A7B88138000BF0837BD4680BD97
:100AA4000000026080B483B000AF0023FB80002309
:100AB400BB8000237B80114B1B88FB800F4B1B8862
:100AC400FB800E4B1B88BB800C4B1B887B80FB88F8
:100AD40023F4FF6323F007039AB2BB889B0A9BB2FB
:100AE4005B019BB213449AB27B88DB0A9BB213442A
:100AF4009BB218460C37BD4680BC704700000260AC
:100B040080B582B000AF03460A46FB801346BB8023
:100B1400BA88FB8811461846FFF712FF4FF0C0430E
:100B24002E221A80FFF7BEFF034618460837BD463B
:100B340080BD00BF80B584B000AF78600B46FB7009
:100B44001346BB70BB780C2B02D0102B03D005E0EE
:100B54001A4BFB6002E01A4BFB6000BFFB78203BA2
:100B64009BB2FA68927892B202FB03F37B81FB6832
:100B74005B6801221946134804F062FE03461A46D4
:100B8400114B1A70104B1B78002B11D17B8919461D
:100B94000C4805F07DFBFB689B781A460B4B796883
:100BA400084805F00FF8074805F056FB012300E05C
:100BB400002318461037BD4680BD00BF2400002026
:100BC4002C000020C8020020EC040020C4020020F5
:100BD4002DE9F04387B000AF0646084611461A4691
:100BE4003346FB800346BB800B46FB7013463B80B9
:100BF4006B461E4697F838100B46013BFB60CAB2A1
:100C04004FF000034FEAC30949EA52794FEAC20898
:100C1400CAB24FF00003DD0045EA5275D4000B461A
:100C24000733DB08DB00ADEB030D6B460033BB6021
:100C340097F838300C2B02D0102B03D005E0244B4E
:100C44003B6102E0234B3B6100BF3B691B789AB2D6
:100C54003B695B789BB2B988F888FFF7B1FE4FF027
:100C6400C0432C221A80BB6897F83820F9781846BC
:100C7400FFF760FF0023BB751FE0BB7DBA68D35C40
:100C84007B750023FB7510E07B7D5BB2002B03DAE0
:100C9400114A3B88138002E00F4B00221A807B7DAF
:100CA4005B007B75FB7D0133FB753B691B78FA7D2B
:100CB4009A42E9D3BB7D0133BB753B695B78BA7D4E
:100CC4009A42DAD3B54600BF1C37BD46BDE8F0836F
:100CD400240000202C0000200000026090B589B0A0
:100CE40002AFBA601A460346FB810B46BB8113462A
:100CF400FB8097F828300C2B02D0102B03D005E092
:100D04001E4B7B6102E01E4B7B6100BF2DE0FA8924
:100D14007B691B78C3F1F0039A4207DD0023FB8152
:100D24007B695B789AB2BB891344BB81BA897B69BE
:100D34005B78C3F5A0739A4203DD0023BB810023D3
:100D4400FB81BB681A78FC88B989F88997F8283040
:100D540000932346FFF73CFF7B691B789AB2FB891B
:100D64001344FB81BB680133BB60BB681B78002B59
:100D7400CDD100BF1C37BD4690BD00BF240000206C
:100D84002C00002090B58BB002AFBA601A4603461F
:100D9400FB810B46BB811346FB800023FB770023BA
:100DA400BB6197F830300C2B02D0102B03D005E038
:100DB400284B7B6102E0284B7B6100BFBB68BB61B1
:100DC400BB69002B13D1FA88B989F88997F83030B8
:100DD400009313463022FFF7FBFE38E0BB691F4A3D
:100DE400A2FB0323DB08BB61FB7F0133FB77BB69F9
:100DF400002BF3D128E0FB7F5A1EFA77013B9BB20C
:100E04007A69127892B202FB03F39AB2FB89134413
:100E140098B2B968114BA3FB0123DA0813469B006F
:100E240013445B00CA1AD3B23033DAB2FC88B989EE
:100E340097F8303000932346FFF7CAFEBB68074A91
:100E4400A2FB0323DB08BB60BB68002BD3D1243790
:100E5400BD4690BD240000202C000020CDCCCCCC7D
:100E640080B588B000AFF860B9601346FB71BB6809
:100E74001B78FB75BB685B78BB75FB790C2B02D0C8
:100E8400102B03D005E0264BBB6102E0254BBB6170
:100E940000BFBB7D7E2B0ED8FB7D813BBE2202FBB7
:100EA40003F2BB7D403B1344BA699278520002FBC3
:100EB40003F3FB610DE0FB7D813BBE2202FB03F2E9
:100EC400BB7D413B1344BA699278520002FB03F3A1
:100ED400FB61BB695B6801221946134804F0B0FC4E
:100EE40003461A46114B1A70104B1B78002B11D174
:100EF400F9690D4805F0CCF9BB699B785B001A468B
:100F04000B4BF968084804F05DFE074805F0A4F9A6
:100F1400012300E0002318462037BD4680BD00BFF2
:100F2400140000201C000020C8020020EC04002053
:100F3400C40200202DE9F0438BB000AFBA601A461A
:100F44000346FB810B46BB811346FB806B461E4662
:100F540097F8483059004B1EBB610B461A464FF0B8
:100F640000034FEAC30949EA52794FEAC2080B4623
:100F74001A464FF00003DD0045EA5275D4000B46D3
:100F84000733DB08DB00ADEB030D6B4600337B61FD
:100F940097F848300C2B02D0102B03D005E02E4BD1
:100FA400FB6102E02D4BFB6100BFFB691B789AB229
:100FB400FB695B789BB2B989F889FFF701FD4FF0B3
:100FC400C0432C221A807B6997F84820B9681846D8
:100FD400FFF746FF0346002B37D00023BB842EE0E7
:100FE400BB8C5B007A69D35C7B847B8C1B0299B2DB
:100FF400BB8C5B0001337A69D35C9BB20A46134312
:101004009BB27B840023FB8410E07B8C1BB2002BFF
:1010140003DA134AFB88138002E0114B00221A8082
:101024007B8C5B007B84FB8C0133FB84FB691B782A
:101034009BB2FA8C9A42E8D3BB8C0133BB84FB6924
:101044005B789BB2BA8C9A42CAD3B54600BF2C37A0
:10105400BD46BDE8F08300BF140000201C00002042
:101064000000026090B589B002AFBA601A46034628
:10107400FB810B46BB811346FB8097F828300C2B71
:1010840002D0102B03D005E03A4B7B6102E03A4BCF
:101094007B6100BF65E0BB681B78DBB25BB2002BF1
:1010A4002DDAFA897B691B78C3F1F0039A4207DDD4
:1010B4000023FB817B695B789AB2BB891344BB81B3
:1010C400BA897B695B78C3F5A0739A4203DD002378
:1010D400BB810023FB81FA88B989F88997F8283005
:1010E40000931346BA68FFF725FF7B691B789AB211
:1010F400FB891344FB81BB680233BB6031E0FA898E
:101104007B691B785B08DBB2C3F1F0039A4207DD0D
:101114000023FB817B695B789AB2BB891344BB8152
:10112400BA897B695B78C3F5A0739A4203DD002317
:10113400BB810023FB81BB681A78FC88B989F889D4
:1011440097F8283000932346FFF742FD7B691B780C
:101154005B08DBB29AB2FB891344FB81BB680133A1
:10116400BB60BB681B78002B95D100BF1C37BD4604
:1011740090BD00BF140000201C00002080B582B088
:1011840002AF00F0CDF800F035F8FFF795F9002331
:1011940000934FF4A073F02200210020FFF764FBBA
:1011A40001220F490F4804F007FB03461A460E4B71
:1011B4001A700D4B1B78002B10D10C2300931F23A6
:1011C4000A4A00210020FFF74DFF102300934FF43B
:1011D400FC63074A10210020FFF744FFFEE700BF2D
:1011E400F895000894000020EC040020FC95000809
:1011F4002496000880B582B000AF4FF4C06006F0BA
:10120400D7F831233B7100237B710023BB71012389
:10121400FB713B1D184606F0DDF800BF0837BD46DC
:1012240080BD00BF80B500AF024807F05FFC0346F5
:10123400184680BD0020001080B58EB000AF7860E5
:101244003960174807F07AFC0021164807F0FAFBCA
:10125400154BFB607B683B6100237B613B689B080B
:10126400BB610023FB6180233B624FF400737B620C
:101274004FF40063BB620023FB624FF400533B63F3
:1012840000237B6307F10C031946064807F072FB41
:101294000121044807F0D6FB00BF3837BD4680BDA6
:1012A40000F00010440402408080014080B58EB0FC
:1012B40000AF78603960174807F040FC00211648F9
:1012C40007F0C0FB154BFB607B683B6110237B611F
:1012D4003B689B08BB610023FB6180233B624FF4A6
:1012E40000737B624FF40063BB620023FB624FF424
:1012F40000533B6300237B6307F10C031946064844
:1013040007F038FB0121044807F09CFB00BF383785
:10131400BD4680BD00F000104404024080800140BE
:1013240080B582B000AF0121302007F04DF94FF4B1
:10133400F853BB800323BB711823FB713B1D194673
:101344000B4806F079F90423BB803B1D1946094874
:1013540006F072F901214FF4806007F017F90121BA
:10136400022007F013F900BF0837BD4680BD00BF57
:10137400001001400014014080B582B000AF06F0B7
:10138400D1FB002006F03EFC002006F04BFC0021BF
:101394004FF4806007F0FAF84FF4F853BB8004234D
:1013A400FB713B1D1946074806F046F90423BB8030
:1013B4003B1D1946044806F03FF900BF0837BD46F7
:1013C40080BD00BF001001400014014080B582B010
:1013D40000AF0023FB7106F0A5FB00F07BF8034689
:1013E400FB71FB79002B01D0FB793BE000F08CF919
:1013F4000346FB71FB79002B01D0FB7932E01B4BD8
:1014040001221A75194B00221A60184B00225A60E7
:10141400164B00229A60154B0022DA60134B00220F
:101424001A61124806F0A4FBFB79002B04D1104882
:1014340000F030FA0346FB71FB79002B08D10C4B0A
:10144400B3F84C301B04184600F0E0FD0346FB7172
:10145400FB79002B05D14FF4006000F06BFD0346CF
:10146400FB71FB7918460837BD4680BD5405002042
:101474000405002080B582B000AF0423FB7100F0A6
:1014840011F80346FB71FB79042B01D1002305E01D
:10149400FB79FF2B01D1022300E001231846083712
:1014A400BD4680BD80B582B000AF00237B603B1D8C
:1014B400184601F0BDF90346002B01D0FF2305E0D7
:1014C4007B685B0ADBB203F00F03DBB21846083714
:1014D400BD4680BD80B586B000AF0023FB750023F8
:1014E4003B610023FB600023BB6000237B607C4BDB
:1014F400B2221A757A4B00221A60794B00225A6084
:10150400774B00229A60764B0022DA60744B0022FB
:101514001A61734806F02CFB032006F083FB0120BC
:1015240006F070FB6F4B00221A606E4B00225A606B
:101534006C4B00229A606B4B0022DA60694B4FF4CB
:1015440080621A61674806F0BFFB01F0C5FA0346E2
:10155400FB75FB7D002B01D0FB7DBDE0614B4FF49F
:10156400D5721A605F4B08225A605E4B40229A6023
:101574005C4B0022DA605B4B4FF480621A6159487D
:1015840006F0A2FB01F0CEFA0346FB75FB7D002BAF
:1015940006D1554B01221A604FF080437B6017E05F
:1015A400504B00221A604F4B37225A604D4B402259
:1015B4009A604C4B0022DA604A4B4FF480621A6105
:1015C400484806F081FB372001F0E8FA0346FB7532
:1015D400444B00221A60434B37225A60414B40224D
:1015E4009A60404B0022DA603E4B4FF480621A61ED
:1015F4003C4806F069FB372001F0D0FA0346FB753E
:10160400FB7D002B67D14BE0364B00221A60354B33
:1016140037225A60334B40229A60324B0022DA6000
:10162400304B4FF480621A612E4806F04DFB372090
:1016340001F0B4FA0346FB75FB7D002B01D0FB7D62
:101644004AE07B6843F0004343F48013254A136067
:10165400244B29225A60234B40229A60214B0022BA
:10166400DA60204B4FF480621A611E4806F02CFBAE
:1016740001F0B2FA0346FB75FB7D002B01D0FB7D24
:101684002AE0002006F070FB38613B69DB0F012B78
:101694000CBF01230023DBB2BB60FB680133FB609A
:1016A400BB68002B04D1FB684FF6FE729342ABD9A2
:1016B400FB684FF6FE72934203D91B23FB75FB7D37
:1016C4000AE03B6903F080433B613B69002B02D095
:1016D400054B02221A60FB7D18461837BD4680BDB3
:1016E40054050020F00400204800002080B582B09A
:1016F40000AF0023FB71002006F094FAFB79184632
:101704000837BD4680BD00BF80B582B000AF00235E
:10171400FB710123BB8006F09DFA0346002B03D125
:101724002523FB71FB79A7E0554B1B68042B33D0B1
:10173400544B00221A60534B02225A60514BC02270
:101744009A60504B0022DA604E4B4FF480621A616B
:101754004C4806F0B9FA01F067FA0346FB71FB79CD
:10176400002B01D0FB7987E0002006F0FDFA024649
:10177400454B1A60042006F0F7FA0246424B5A60C1
:10178400082006F0F1FA02463F4B9A600C2006F05E
:10179400EBFA02463C4BDA60394B1B68002B0BD04A
:1017A400374B1B68012B07D0354B1B68062B03D026
:1017B400334B1B68022B1ED1324B00221A60314B73
:1017C40003225A602F4B40229A602E4B0022DA608B
:1017D4002C4B4FF480621A612A4806F075FA3B1DBF
:1017E4001946032001F054FA0346FB71FB79002BE0
:1017F40001D0FB7940E0224B1B68042B39D0BB8815
:101804001A46224B1A60BB881B041A461D4B1A60E9
:101814001C4B09225A601B4BC0229A60194B0022B0
:10182400DA60184B4FF480621A61164806F04CFADD
:1018340001F0FAF90346FB71FB79002B01D0FB7927
:101844001AE0002006F090FA0246114B1A600420B8
:1018540006F08AFA02460E4B5A60082006F084FA13
:1018640002460B4B9A600C2006F07EFA0246084BA7
:10187400DA600023FB71FB7918460837BD4680BD4A
:1018840048000020F00400205C0000206C000020D0
:101894004C00002080B485B000AF78600023BB7397
:1018A4000023FB737E4B1B68DAB27B6883F84E20FF
:1018B4007C4B1B689AB27B68A3F84C207A4B1B685C
:1018C4001B0EFB73FB7B9B09DAB27B681A70FB7BF4
:1018D40003F03C039B10DAB27B685A70FB7B03F085
:1018E4000303DAB27B689A706F4B1B6803F47F03BF
:1018F4001B0CFB737B68FA7BDA706B4B1B6803F47D
:101904007F431B0AFB737B68FA7B1A71664B1B6867
:10191400FB737B68FA7B5A71634B5B681B0EFB732A
:10192400FB7B9BB21B019AB27B68DA805E4B5B68DF
:1019340003F47F031B0CFB737B68DB889AB2FB7B8D
:101944001B09DBB29BB213439AB27B68DA80FB7B40
:1019540003F00F03DAB27B681A72534B5B6803F42B
:101964007F431B0AFB73FB7BDB09DAB27B685A7289
:10197400FB7B03F040039B11DAB27B689A72FB7B1A
:1019840003F020035B11DAB27B68DA72FB7B03F0AD
:1019940010031B11DAB27B681A737B6800225A7336
:1019A4003F4B1B68002B03D03D4B1B68012B7DD1A3
:1019B400FB7B03F003039B021A467B681A613A4BD4
:1019C4005B68FB737B681B69FA7B92001A437B6834
:1019D4001A61354B9B681B0EFB737B681B69FA7B92
:1019E4009209D2B21A437B681A61FB7B03F0380375
:1019F400DB10DAB27B681A75FB7B03F00703DAB2FB
:101A04007B685A75284B9B6803F47F031B0CFB739C
:101A1400FB7B5B09DAB27B689A75FB7B03F01C03E2
:101A24009B10DAB27B68DA75FB7B03F00303DBB24D
:101A34005B00DAB27B681A761B4B9B6803F47F4326
:101A44001B0AFB737B681B7EDAB2FB7BDB09DBB210
:101A54001343DAB27B681A767B681B695A1C7B686D
:101A64005A647B681B7EDBB2023301229A407B6896
:101A74005B6C02FB03F27B685A647B681B7ADBB203
:101A84001A46012393401A467B689A647B685B6C10
:101A94007A68926C02FB03F27B685A643BE000BFF5
:101AA400480000206C0000204C000020AA4B1B685A
:101AB400022B30D1A94B5B68FB73FB7B03F03F0324
:101AC4001B041A467B681A61A44B9B681B0EFB73AC
:101AD4007B681B69FA7B12021A437B681A619F4B6D
:101AE4009B6803F47F031B0CFB737B681A69FB7B05
:101AF4001A437B681A61994B9B6803F47F431B0A62
:101B0400FB737B681B690133DA047B685A647B6866
:101B14004FF400729A64FB7B03F040039B11DAB22A
:101B24007B685A76FB7B03F03F03DBB25B00DAB2DF
:101B34007B689A76894B9B68FB737B689B7EDAB2E1
:101B4400FB7BDB09DBB21343DAB27B689A76FB7B5F
:101B540003F07F03DAB27B68DA76804BDB681B0E16
:101B6400FB73FB7BDB09DAB27B681A77FB7B03F040
:101B740060035B11DAB27B685A77FB7B03F01C03CA
:101B84009B10DAB27B689A77FB7B03F00303DBB22A
:101B94009B00DAB27B68DA77704BDB6803F47F036F
:101BA4001B0CFB737B68DB7FDAB2FB7B9B09DBB22C
:101BB4001343DAB27B68DA77FB7B03F020035B1113
:101BC400DAB27B6883F820207B68002283F8212026
:101BD400FB7B03F00103DAB27B6883F822205F4BBE
:101BE400DB6803F47F431B0AFB73FB7BDB09DAB27C
:101BF4007B6883F82320FB7B03F040039B11DAB25C
:101C04007B6883F82420FB7B03F020035B11DAB2AA
:101C14007B6883F82520FB7B03F010031B11DAB2E9
:101C24007B6883F82620FB7B03F00C039B10DAB25D
:101C34007B6883F82720FB7B03F00303DAB27B681D
:101C440083F82820454BDB68FB73FB7B5B08DAB227
:101C54007B6883F829207B68012283F82A20404B83
:101C64001B681B0EFB737B68FA7B83F82C203C4BB0
:101C74001B6803F47F031B0CFB73FB7B9BB21B02EF
:101C84009AB27B68DA85364B1B6803F47F431B0AE0
:101C9400FB737B68DB8D9AB2FB7B9BB213439AB2D6
:101CA4007B68DA852E4B1B68FB73FB7B1B061A468D
:101CB4007B681A632A4B5B681B0EFB737B681B6B88
:101CC400FA7B12041A437B681A63254B5B6803F49E
:101CD4007F031B0CFB737B681B6BFA7B12021A439A
:101CE4007B681A631E4B5B6803F47F431B0AFB7318
:101CF4007B681A6BFB7B1A437B681A63184B5B681F
:101D0400FB737B68FA7B83F83420154B9B681B0EAE
:101D1400FB737B68FA7B83F83520114B9B6803F4D3
:101D24007F031B0CFB73FB7B1B061A467B689A63C1
:101D34000B4B9B6803F47F431B0AFB737B689B6B11
:101D4400FA7B12041A437B689A63054B9B68FB7306
:101D54007B689B6B06E000BF480000204C0000201D
:101D64005C000020FA7B12021A437B689A63234BBF
:101D7400DB681B0EFB737B689A6BFB7B1A437B68E7
:101D84009A631E4BDB6803F47F031B0CFB737B68B5
:101D940093F83C30DAB2FB7B1B09DBB21343DAB2B3
:101DA4007B6883F83C20FB7B9BB203F00F039BB260
:101DB4001B029AB27B68DA87104BDB6803F47F431B
:101DC4001B0AFB737B68DB8F9AB2FB7B9BB21343CA
:101DD4009AB27B68DA87094BDB68FB73FB7B5B0891
:101DE400DAB27B6883F840207B68012283F84120C3
:101DF400BB7B18461437BD4680BC70475C0000208E
:101E040080B584B000AF78600023FB730023BB73FC
:101E1400474800F033FD0346FB73FB7B002B01D0E6
:101E2400FB7B81E0424B1B789B09BB737B68BA7BCD
:101E34001A703F4B1B7803F020035B11BB737B6864
:101E4400BA7B5A703A4B9B78BB73BB7B9BB21B0229
:101E54009AB27B685A80364BDB78BB737B685B88AD
:101E64009AB2BB7B9BB213439AB27B685A80304BC5
:101E74001B79BB73BB7B1B061A467B685A602C4BD1
:101E84005B79BB737B685B68BA7B12041A437B681B
:101E94005A60274B9B79BB737B685B68BA7B1202E1
:101EA4001A437B685A60224BDB79BB737B685A68A0
:101EB400BB7B1A437B685A601D4B1B7ABB737B68E0
:101EC400BA7B1A721A4B5B7ABB737B68BA7B5A7201
:101ED400174B9B7A1B09BB737B68BA7B9A72144BB2
:101EE400DB7ABB73BB7B9BB21B029AB27B689A8181
:101EF4000F4B1B7BBB737B689B899AB2BB7B9BB2EA
:101F040013439AB27B689A81094B5B7B9B08BB7332
:101F14007B68BA7B9A73064B5B7B03F00303BB734A
:101F24007B68BA7BDA73FB7B18461037BD4680BDED
:101F34007000002080B584B000AF78600023FB738C
:101F4400304B1B68032B03D12723FB73FB7B54E02B
:101F54002C4B1B68002B07D02A4B1B68012B03D08A
:101F6400284B1B68022B47D17B68B3F5805F03D1F4
:101F74002723FB73FB7B40E07B68B3F5006F1ED126
:101F8400012000F0EDFE0346FB73FB7B002B33D1F5
:101F94001D4B01221A751C4B00221A601A4B002299
:101FA4005A60194B00229A60174B4FF40062DA60B2
:101FB400154B00221A61144805F0DAFD1CE00020DC
:101FC40000F0CEFE0346FB73FB7B002B14D10E4BBB
:101FD40001221A750C4B00221A600B4B00225A6026
:101FE400094B00229A60084B0022DA60064B00225B
:101FF4001A61054805F0BCFDFB7B18461037BD4649
:1020040080BD00BF480000205405002080B584B086
:1020140000AF78600023FB730E4A7B6813600D4B9E
:1020240007225A600B4B40229A600A4B0022DA6066
:10203400084B4FF480621A61064805F045FE0720FC
:1020440000F0ACFD0346FB73FB7B18461037BD461E
:1020540080BD00BFF004002080B586B000AFF860FA
:10206400B9601346FB800023FB753C4B00221A70B9
:102074003B4B00221A603B4B00221A603A4B002271
:10208400DA623A4B1B68022B05D14FF40073FB80D4
:10209400BB685B0ABB60FB88354A1360344B102273
:1020A4005A60334B40229A60314B4FF480621A617C
:1020B4002F4B0022DA602E4805F006FE102000F0B7
:1020C4006DFD0346FB75FB7D002B01D0FB7D40E0DD
:1020D400284B4FF0FF321A60FB88264A5360254B89
:1020E40090229A60234B0222DA60224B00221A616A
:1020F400204B01225A611F4805F04AFE1C4ABB6866
:1021040013601B4B11225A60194B40229A60184BE2
:102114000022DA60164B4FF480621A61144805F00D
:10212400D3FD112000F03AFD0346FB75FB7D002B27
:1021340001D0FB7D0DE001214FF4807005F096FD88
:10214400012005F0B1FDFB881946F868FFF774F823
:10215400FB7D18461837BD4680BD00BF84000020B3
:1021640088000020800000200080014048000020FA
:10217400F00400206C05002080B586B000AFF86044
:10218400B9603B601346FB800023FB754D4B002276
:102194001A704D4B00221A604C4B01221A604C4BB2
:1021A4000022DA624B4B1B68022B05D14FF40073FB
:1021B400FB80BB685B0ABB60FB88474A1360464BE5
:1021C40010225A60444B40229A60434B4FF4806281
:1021D4001A61414B0022DA603F4805F075FD10207A
:1021E40000F0DCFC0346FB75FB7D002B01D0FB7D7E
:1021F40063E0FB88384A1360374B10225A60364B31
:1022040040229A60344B0022DA60334B4FF48062F0
:102214001A61314805F058FD102000F0BFFC034658
:10222400FB75FB7D002B01D0FB7D46E02B4B4FF073
:10223400FF321A60FB883A6802FB03F3274A5360B3
:10224400264B90229A60254B0222DA60234B00220F
:102254001A61224B01225A61204805F099FD1E4A59
:10226400BB6813601C4B12225A601B4B40229A60BD
:10227400194B0022DA60184B4FF480621A61164839
:1022840005F022FD122000F089FC0346FB75FB7D5E
:10229400002B01D0FB7D10E001214FF4807005F08C
:1022A400E5FC012005F000FDFB883A6802FB03F31E
:1022B4001946F868FEF7C0FFFB7D18461837BD467F
:1022C40080BD00BF84000020880000208000002022
:1022D4000080014048000020F00400206C0500202C
:1022E40080B582B000AF0023FB7100BFFEF79AFFF8
:1022F4000346002B08D10B4B1B68002B04D10A4B5F
:102304001B78DBB2002BF1D0074B1B78DBB2002B20
:1023140003D0054B1B78DBB200E0FB791846083785
:10232400BD4680BD880000208400002080B586B0B2
:1023340000AFF860B9601346FB800023FB753C4B8B
:1023440000221A703B4B00221A603B4B00221A6099
:102354003A4B0022DA623A4B1B68022B05D14FF448
:102364000073FB80BB685B0ABB60FB88354A136063
:10237400344B10225A60334B40229A60314B4FF455
:1023840080621A612F4B0022DA602E4805F09CFC13
:10239400102000F003FC0346FB75FB7D002B01D0ED
:1023A400FB7D40E0274ABB681360264B18225A6025
:1023B400244B40229A60234B0022DA60214B4FF4D5
:1023C40080621A611F4805F07FFC182000F0E6FBCC
:1023D4000346FB75FB7D002B01D0FB7D23E01A4BEC
:1023E4004FF0FF321A60FB88174A5360164B902255
:1023F4009A60154B0022DA60134B00221A61124BCB
:1024040001225A61104805F0C3FC01214FF4807089
:1024140005F02CFCFB881946F868FEF747FF0120FD
:1024240005F042FCFB7D18461837BD4680BD00BF51
:1024340084000020880000208000002000800140EB
:1024440048000020F00400206C05002080B586B010
:1024540000AFF860B9603B601346FB800023FB7556
:102464005C4B00221A705C4B00221A605B4B012209
:102474001A605B4B0022DA625A4B1B68022B05D1AF
:102484004FF40073FB80BB685B0ABB60FB88564A51
:102494001360554B10225A60534B40229A60524BA2
:1024A4004FF480621A61504B0022DA604E4805F006
:1024B4000BFC102000F072FB0346FB75FB7D002B28
:1024C40001D0FB7D82E0494B1B681B04464A136024
:1024D400454B37225A60444B40229A60424B0022BB
:1024E400DA60414B4FF480621A613F4805F0ECFB1F
:1024F400372000F053FB0346FB75FB7D002B01D016
:10250400FB7D63E0384A3B681360374B17225A60FF
:10251400354B40229A60344B0022DA60324B4FF440
:1025240080621A61304805F0CFFB172000F036FBBB
:102534000346FB75FB7D002B01D0FB7D46E02A4A58
:10254400BB681360284B19225A60274B40229A60BB
:10255400254B0022DA60244B4FF480621A61224832
:1025640005F0B2FB192000F019FB0346FB75FB7D57
:10257400002B01D0FB7D29E01D4B4FF0FF321A6088
:10258400FB883A6802FB03F3194A5360184B902204
:102594009A60174B0022DA60154B00221A61144B23
:1025A40001225A61124805F0F3FB01214FF48070B7
:1025B40005F05CFB012005F077FBFB883A6802FB21
:1025C40003F31946F868FEF771FEFB7D18461837C9
:1025D400BD4680BD840000208800002080000020CB
:1025E4000080014048000020F00400206C0000201E
:1025F4006C05002080B582B000AF0023FB7100BFE2
:10260400FEF710FE0346002B08D10D4B1B68002B70
:1026140004D10C4B1B78DBB2002BF1D0094B1B7897
:10262400DBB2002B03D0074B1B78DBB204E040F293
:10263400FF5005F0C5FCFB7918460837BD4680BD40
:10264400880000208400002080B400AF064B5B6B40
:1026540003F44053002B01D0012300E0002318466B
:10266400BD4680BC704700BF0080014080B582B089
:1026740000AF0023FB71084B00229A60064B40F226
:102684004C42DA600C2000F089FA0346FB71FB79B6
:1026940018460837BD4680BD0080014080B586B02D
:1026A40000AF786039600023FB7500233B61002391
:1026B400FB600023FB72594B5B681B0D03F0200386
:1026C400002B03D12523FB75FB7DA3E0544B5B68F2
:1026D400DBB20233534AB2FBF3F3FB60002005F094
:1026E40043FB034603F00073002B03D00E23FB755A
:1026F400FB7D8FE04C4B1B68022B05D17B685B0A8A
:102704007B603B685B0A3B60474B1B68002B07D030
:10271400454B1B68012B03D0434B1B68022B39D15B
:10272400424A7B681360414B20225A603F4B40224F
:102734009A603E4B0022DA603C4B4FF480621A618F
:102744003A4805F0C1FA202000F028FA0346FB7548
:10275400FB7D002B01D0FB7D5CE0344A3B681360B9
:10276400324B21225A60314B40229A602F4B002277
:10277400DA602E4B4FF480621A612C4805F0A4FAFB
:10278400212000F00BFA0346FB75FB7D002B01D0E2
:10279400FB7D3FE0254B00221A60244B26225A6021
:1027A400224B40229A60214B0022DA601F4B4FF4E7
:1027B40080621A611D4805F087FA262000F0EEF9C0
:1027C4000346FB75FB7D002B01D0FB7D22E000233B
:1027D4003B6102E03B6901333B61FB683A699A4221
:1027E400F8D307F10B03184600F07AFB0346FB7598
:1027F40006E007F10B03184600F072FB0346FB7575
:10280400FB7D002B05D1FB7A072BF2D0FB7A062B3C
:10281400EFD0FB7D18461837BD4680BD4C00002024
:1028240000800140C0D4010048000020F0040020D2
:1028340080B584B000AF78600023FB730D4A0E4B63
:102844001B681B0493600B4B40F24D42DA600D2071
:1028540000F0A4F90346FB73FB7B002B01D0FB7B48
:1028640004E0044B5A697B681A60FB7B18461037F6
:10287400BD4680BD008001406C00002090B585B04D
:1028840000AF78600023FB720023FB60002005F09A
:102894006BFA034603F00073002B03D00E23FB7284
:1028A400FB7ADAE06F4B40221A606E4B10225A60BA
:1028B4006C4B40229A606B4B0022DA60694B4FF4F8
:1028C40080621A61674805F0FFF9102000F066F98C
:1028D4000346FB72FB7A002B01D0FB7ABDE0624B0E
:1028E4001B681B045F4A13605E4B37225A605D4BC2
:1028F40040229A605B4B0022DA605A4B4FF48062AC
:102904001A61584805F0E0F9372000F047F903460A
:10291400FB72FB7A002B01D0FB7A9EE0534B4FF005
:10292400FF321A60514B40225A60504B60229A6029
:102934004E4B0222DA604D4B00221A614B4B0122AE
:102944005A614A4805F024FA464B00221A60454B66
:102954000D225A60434B40229A60424B0022DA60B7
:10296400404B4FF480621A613E4805F0ADF90D20EA
:1029740000F014F90346FB72FB7A002B1CD0FB7A9F
:102984006BE04FF4004005F001FB0346002B13D02D
:102994000023FB600AE0FB689B007A68D41805F00A
:1029A4004BFA03462360FB680133FB60FB68072B8B
:1029B400F1D97B6820337B602D4B5A6B40F22A633C
:1029C4001340002BDDD0082005F0E0FA0346002B6D
:1029D40006D0082005F0F4FA0423FB72FB7A3CE0ED
:1029E400022005F0D3FA0346002B06D0022005F09E
:1029F400E7FA0223FB72FB7A2FE0202005F0C6FAE7
:102A04000346002B06D0202005F0DAFA0623FB72D9
:102A1400FB7A22E04FF4007005F0B8FA0346002B6D
:102A24000FD04FF4007005F0CBFA0723FB72FB7A4A
:102A340013E005F001FA02467B681A607B680433F0
:102A44007B604FF4001005F0A1FA0346002BF0D18F
:102A540040F2FF5005F0B4FAFB7A18461437BD462D
:102A640090BD00BFF00400206C0000206C05002025
:102A74000080014080B500AF134B1B68012B0ED1C1
:102A8400124B00229A60114B40F24C42DA600C2047
:102A940000F084F803461A460D4B1A7002E00C4B02
:102AA40000221A704FF4807005F0B2FA00214FF43E
:102AB400807005F0DBF8074B01221A60044B1B7889
:102AC400DBB2184680BD00BF8000002000800140BA
:102AD400840000208800002080B582B000AF00236D
:102AE400FB704FF480337B6002E07B68013B7B60CA
:102AF4007B68002B05D0802005F048FA0346002BA4
:102B0400F3D07B68002B03D10323FB70FB7804E034
:102B140040F2FF5005F054FAFB7818460837BD46DA
:102B240080BD00BF80B584B000AF0023FB714FF4BB
:102B34008033BB60184B5B6BFB6005E0BB68013BFB
:102B4400BB60154B5B6BFB60FB6803F04503002B1C
:102B540002D1BB68002BF1D1BB68002B04D0FB6809
:102B640003F00403002B06D00323FB71042005F0BB
:102B740027FAFB790CE0FB6803F04003002B06D036
:102B84000023FB71402005F01BFAFB7900E0FB7980
:102B940018461037BD4680BD0080014080B483B024
:102BA40000AF0346FB7100BF0A4B5B6B03F04503A8
:102BB400002BF9D0074B40F2FF529A63054B5B6937
:102BC400DBB203F00803DBB218460C37BD4680BC09
:102BD400704700BF0080014080B582B000AF002381
:102BE400FB70104B5B6B7B6002E00E4B5B6B7B609E
:102BF4007B6803F04503002BF7D07B6803F00403E4
:102C0400002B06D00323FB70042005F0D9F9FB78D0
:102C140004E040F2FF5005F0D3F9FB78184608377A
:102C2400BD4680BD0080014080B582B000AF002366
:102C3400FB70164B5B6B7B6002E0144B5B6B7B6041
:102C44007B6803F04503002BF7D07B6803F0040393
:102C5400002B06D00323FB70042005F0B1F9FB78A8
:102C640010E07B6803F00103002B06D00123FB7006
:102C7400012005F0A5F9FB7804E040F2FF5005F0CF
:102C84009FF9FB7818460837BD4680BD0080014097
:102C940080B586B000AF03463960FB710023FB7436
:102CA4002E4B5B6B7B6102E02C4B5B6B7B617B6926
:102CB40003F04503002BF7D07B6903F00403002BDA
:102CC40006D00323FB74042005F07AF9FB7C40E072
:102CD4007B6903F00103002B06D00123FB74012060
:102CE40005F06EF9FB7C34E005F032F803461A4631
:102CF400FB79934203D01023FB74FB7C29E040F260
:102D0400FF5005F05DF9002005F02EF8F860FB682F
:102D140003F46043002B06D1FB681B0C9AB23B689A
:102D24001A80FB7C15E0FB6803F40053002B01D0F0
:102D340013230EE0FB6803F48043002B01D010231F
:102D440007E0FB6803F40043002B01D00F2300E0ED
:102D5400FB7C18461837BD4680BD00BF008001408B
:102D640080B586B000AF0346FB710023FB750023DA
:102D7400FB6000233B61002004F0F6FF034603F0F0
:102D84000073002B03D00E23FB75FB7D9FE0524B99
:102D94001B689BB207F10C021146184600F096F925
:102DA4000346FB75FB7D002B01D0FB7D8FE0FB7997
:102DB400012B46D13B6903F48023002B3DD0464BC5
:102DC4001B681B04454A1360444B37225A60434B2B
:102DD40040229A60414B0022DA60404B4FF48062FB
:102DE4001A613E4804F070FF3720FFF7D7FE034610
:102DF400FB75FB7D002B01D0FB7D68E0374B022285
:102E04001A60364B06225A60344B40229A60334B88
:102E14000022DA60314B4FF480621A612F4804F0CB
:102E240053FF0620FFF7BAFE0346FB75FB7D002B1C
:102E340001D0FB7D4BE0FB7D49E02523FB75FB7D49
:102E440045E03B6903F48033002B3DD0224B1B68E3
:102E54001B04224A1360214B37225A601F4B402225
:102E64009A601E4B0022DA601C4B4FF480621A6198
:102E74001A4804F029FF3720FFF790FE0346FB753C
:102E8400FB7D002B01D0FB7D21E0144B00221A6056
:102E9400124B06225A60114B40229A600F4B0022BB
:102EA400DA600E4B4FF480621A610C4804F00CFF98
:102EB4000620FFF773FE0346FB75FB7D002B01D054
:102EC400FB7D04E0FB7D02E02523FB75FB7D1846BA
:102ED4001837BD4680BD00BF6C000020F004002000
:102EE40080B586B000AF78600023FB7500233B619A
:102EF4000023FB60714B1B681B04714A1360704B09
:102F04000D225A606E4B40229A606D4B0022DA60AB
:102F14006B4B4FF480621A61694804F0D5FE694B2B
:102F24005B6BFB6002E0674B5B6BFB60FB6803F071
:102F34004503002BF7D0FB6803F00403002B06D0F5
:102F44000323FB75042005F03BF8FB7DB2E0FB682E
:102F540003F00103002B06D00123FB75012005F0CB
:102F64002FF8FB7DA6E004F0F3FE0346FB60FB684C
:102F74000D2B03D01023FB75FB7D9BE040F2FF502B
:102F840005F01EF8002004F0EFFE03463B613B69A8
:102F94005B0ADBB203F00F03DAB27B681A703A699A
:102FA400494B1340002B01D1FB7D83E03B69002B8F
:102FB40001DA1C237EE03B6903F08043002B01D03F
:102FC400092377E03B6903F00053002B01D00A2367
:102FD40070E03B6903F08053002B01D00B2369E0C0
:102FE4003B6903F00063002B01D00C2362E03B69D2
:102FF40003F08063002B01D00D235BE03B6903F0F9
:103004008073002B01D00E2354E03B6903F40003CA
:10301400002B01D00F234DE03B6903F48003002B08
:1030240001D0102346E03B6903F40013002B01D0C8
:1030340011233FE03B6903F48013002B01D01223DA
:1030440038E03B6903F40023002B01D0132331E063
:103054003B6903F48023002B01D014232AE03B694D
:1030640003F40033002B01D0152323E03B6903F460
:103074008033002B01D016231CE03B6903F400438A
:10308400002B01D0172315E03B6903F48043002B88
:1030940001D018230EE03B6903F40053002B01D048
:1030A400192307E03B6903F00803002B01D01A231E
:1030B40000E0FB7D18461837BD4680BD6C0000203B
:1030C400F00400200080014008E0FFFD90B587B0C7
:1030D40000AF03463960FB8000237B610023FB744F
:1030E4000023BB600023FB60754B08221A60744BFD
:1030F40010225A60724B40229A60714B0022DA60AF
:103104006F4B4FF480621A616D4804F0DDFD1020AE
:10311400FFF744FD0346FB74FB7C002B01D0FB7CD2
:10312400C9E0684B1B681B04654A1360644B372273
:103134005A60634B40229A60614B0022DA60604B14
:103144004FF480621A615E4804F0BEFD3720FFF739
:1031540025FD0346FB74FB7C002B01D0FB7CAAE01D
:10316400594B4FF0FF321A60574B08225A60564BA6
:1031740030229A60544B0222DA60534B00221A61C7
:10318400514B01225A61504804F002FE4C4B00227C
:103194001A604B4B33225A60494B40229A60484B89
:1031A4000022DA60464B4FF480621A61444804F00E
:1031B4008BFD3320FFF7F2FC0346FB74FB7C002BF2
:1031C40014D0FB7C77E04FF4001004F0DFFE0346DC
:1031D400002B0BD07B699B0007F10802D41804F084
:1031E4002BFE034623607B6901337B61374B5A6BAB
:1031F40040F22A631340002BE5D0082004F0C6FEF9
:103204000346002B06D0082004F0DAFE0423FB74E6
:10321400FB7C50E0022004F0B9FE0346002B06D0EC
:10322400022004F0CDFE0223FB74FB7C43E020204B
:1032340004F0ACFE0346002B06D0202004F0C0FEB0
:103244000623FB74FB7C36E04FF4007004F09EFE12
:103254000346002B07D04FF4007004F0B1FE07239F
:10326400FB74FB7C27E040F2FF5004F0A9FE3B68AE
:103274000433BA681106BA6802F47F421202114399
:10328400BA6802F47F02120A1143BA68120E0A43A2
:103294001A60FB681A06FB6803F47F431B021A4397
:1032A400FB6803F47F031B0A1A43FB681B0E1A43D3
:1032B4003B681A60FB7C18461C37BD4690BD00BFB6
:1032C400F00400206C0000206C0500200080014008
:1032D40080B485B000AF0346FB800023FB7305E098
:1032E400FB885B08FB80FB7B0133FB73FB88012BB2
:1032F400F6D1FB7B18461437BD4680BC704700BF2F
:1033040080B483B000AF0346FB71002318460C372A
:10331400BD4680BC704700BF80B584B000AF034693
:10332400FB71FB79002B01D0012309E0FEF74EF875
:103334000346FB73FB7B002B01D0012300E0002339
:1033440018461037BD4680BD80B584B000AFB96063
:103354007A603B600346FB733B68012B10D97B68A2
:1033640059023B684FF40072B868FEF705FFFEF798
:10337400B7FF00BFFEF77EF80346002BFAD10FE03B
:103384007B685B024FF400721946B868FEF764FE6E
:10339400FEF7A6FF00BFFEF76DF80346002BFAD137
:1033A400002318461037BD4680BD00BF80B584B0E9
:1033B40000AFB9607A603B600346FB733B68012B46
:1033C40010D97B6859023B684FF40072B868FFF764
:1033D4003DF8FFF70FF900BFFEF74CF80346002B4A
:1033E400FAD10FE07B685B024FF400721946B868AB
:1033F400FEF79CFFFEF774FF00BFFEF73BF80346A1
:10340400002BFAD1002318461037BD4680BD00BFFB
:1034140080B483B000AF03463A60FB710B46BB71C6
:10342400002318460C37BD4680BC704780B400AFFB
:1034340000231846BD4680BC704700BF80B487B0E7
:1034440000AFF860B9607A60FB687B61BB683B6180
:1034540007E07B695A1C7A613A69511C3961127818
:103464001A707B685A1E7A60002BF2D100BF1C3799
:10347400BD4680BC704700BF80B487B000AFF86021
:10348400B9607A60FB687B6105E07B695A1C7A61EC
:10349400BA68D2B21A707B685A1E7A60002BF4D1D3
:1034A40000BF1C37BD4680BC704700BF80B489B0E4
:1034B40000AFF860B9607A60FB68FB61BB68BB6110
:1034C40000237B6100BF7B685A1E7A60002B0DD0FD
:1034D400FB695A1CFA611B781946BB695A1CBA610C
:1034E4001B78CB1A7B617B69002BECD07B69184677
:1034F4002437BD4680BC704780B483B000AF786089
:10350400396002E07B6801337B607B681B78002BA9
:1035140005D07B681B781A463B689A42F2D17B68D7
:103524001B7818460C37BD4680BC704780B586B002
:1035340000AF78600023FB737B681B79002B34D0C9
:103544007B68DB6A7B617B6858787B6803F13001B8
:1035540001237A69FFF72AFF0346002B02D00123D7
:10356400FB7322E07B6800221A717B681B6A7A690C
:10357400D21A7B689B699A4217D27B68DB783B61DD
:1035840010E07B689B697A6913447B617B68587897
:103594007B6803F1300101237A69FFF707FF3B6978
:1035A400013B3B613B69012BEBD8FB7B1846183789
:1035B400BD4680BD80B584B000AF7860396000231B
:1035C400FB737B68DA6A3B689A421BD07868FFF722
:1035D400ADFF0346FB73FB7B002B13D17B6858784C
:1035E4007B6803F1300101233A68FFF7ADFE03461F
:1035F400002B04D04FF0FF333B600123FB737B6847
:103604003A68DA62FB7B18461037BD4680BD00BFBE
:1036140080B584B000AF78607868FFF787FF034611
:10362400FB73FB7B002B40F08E807B681B78032BA5
:103634007DD17B685B79012B79D17B6830334FF482
:10364400007200211846FFF717FF7B68552283F8A4
:103654002E227B68AA2283F82F227B68522283F8C9
:1036640030207B68522283F831207B68612283F802
:1036740032207B68412283F833207B68722283F8EE
:1036840014227B68722283F815227B68412283F816
:1036940016227B68612283F817227B681B69DAB2E1
:1036A4007B6883F818227B681B699BB21B12DAB211
:1036B4007B6883F819227B681B691B0CDAB27B6870
:1036C40083F81A227B681B691B0EDAB27B6883F8C5
:1036D4001B227B68DB68DAB27B6883F81C227B6878
:1036E400DB689BB21B12DAB27B6883F81D227B680D
:1036F400DB681B0CDAB27B6883F81E227B68DB680C
:103704001B0EDAB27B6883F81F227B68DB695A1CC4
:103714007B68DA627B6858787B6803F130017B68E8
:10372400DA6A0123FFF742FE7B6800225A717B6844
:103734005B78002200211846FFF76AFE0346002B3F
:1037440001D00123FB73FB7B18461037BD4680BDB7
:1037540080B483B000AF786039603B68023B3B6063
:103764007B685B699A1E3B689A4201D8002308E093
:103774007B689B781A463B6803FB02F27B689B6A72
:10378400134418460C37BD4680BC704780B586B0DC
:1037940000AF786039603B68012B04D97B685A69B3
:1037A4003B689A4202D801237B61A1E04FF0FF33CA
:1037B4007B617B681B78022B46D0032B65D0012BE1
:1037C40040F08C803B683B613B695B083A69134479
:1037D4003B617B681A6A3B695B0A13441946786843
:1037E400FFF7E8FE0346002B7BD13B695A1C3A6184
:1037F400C3F308037A68134493F83030FB607B68A2
:103804001A6A3B695B0A134419467868FFF7D2FECB
:103814000346002B67D13B69C3F308037A6813445A
:1038240093F830301B021A46FB681343FB603B6875
:1038340003F00103002B02D0FB681B0902E0FB68C4
:10384400C3F30B037B6153E07B681A6A3B681B0A72
:10385400134419467868FFF7ADFE0346002B44D1A4
:103864003B685B0003F4FF7330337A681344BB6036
:10387400BB6801331B781B029AB2BB681B789BB2EE
:1038840013439BB29BB27B6132E07B681A6A3B684C
:10389400DB09134419467868FFF78CFE0346002BB6
:1038A40025D13B689B0003F4FE7330337A681344DC
:1038B400BB60BB6803331B781A06BB6802331B78F2
:1038C4001B041343BA680132127812021343BA6814
:1038D4001278134323F070437B6109E001237B6179
:1038E40006E000BF04E000BF02E000BF00E000BF4C
:1038F4007B6918461837BD4680BD00BF80B588B0C7
:1039040000AFF860B9607A60BB68012B04D9FB682A
:103914005A69BB689A4202D80223FB77ECE0FB6841
:103924001B78022B72D0032B00F09580012B40F002
:10393400D980BB68BB61BB695B08BA691344BB61CE
:10394400FB681A6ABB695B0A13441946F868FFF7F7
:1039540031FE0346FB77FB7F002B40F0C680BB693A
:103964005A1CBA61C3F308033033FA6813447B6109
:10397400BB6803F00103002B0DD07B691B78DBB21D
:1039840003F00F03DAB27B68DBB21B01DBB2134333
:10399400DBB2DBB201E07B68DBB27A691370FB68EF
:1039A40001221A71FB681A6ABB695B0A134419463F
:1039B400F868FFF7FFFD0346FB77FB7F002B40F021
:1039C4009680BB69C3F308033033FA6813447B6100
:1039D400BB6803F00103002B03D07B681B09DBB237
:1039E4000EE07B691B78DBB223F00F03DAB27B684D
:1039F4001B0ADBB203F00F03DBB21343DBB2DBB20F
:103A04007A691370FB6801221A7175E0FB681A6AFF
:103A1400BB681B0A13441946F868FFF7CBFD03463D
:103A2400FB77FB7F002B64D1BB685B0003F4FF735F
:103A34003033FA6813447B617B68DAB27B691A70AD
:103A44007B6901337A6892B21212D2B21A70FB689F
:103A540001221A7150E0FB681A6ABB68DB0913443F
:103A64001946F868FFF7A6FD0346FB77FB7F002B9A
:103A740041D1BB689B0003F4FE733033FA681344EE
:103A84007B617B6903331B781A067B6902331B78DD
:103A94001B0413437A6901321278120213437A69C0
:103AA4001278134303F070437A6813437B607B6896
:103AB400DAB27B691A707B6901337A6892B21212A6
:103AC400D2B21A707B6902337A68120CD2B21A70BD
:103AD4007B6903337A68120ED2B21A70FB68012232
:103AE4001A7109E00223FB7706E000BF04E000BF7F
:103AF40002E000BF00E000BFFB7F18462037BD4650
:103B040080BD00BF80B584B000AF786039603B6889
:103B1400012B04D97B685A693B689A4202D8022374
:103B2400FB733DE00023FB7331E039687868FFF7ED
:103B34002DFEB860BB68002B2FD0BB68012B02D1CF
:103B44000223FB732CE0BB68B3F1FF3F02D10123D6
:103B5400FB7325E0002239687868FFF7CFFE03463F
:103B6400FB73FB7B002B1AD17B681B69B3F1FF3F0E
:103B74000BD07B681B695A1C7B681A617B685B7974
:103B840043F00103DAB27B685A71BB683B607B681F
:103B94005A693B689A42C8D802E000BF00E000BFFF
:103BA400FB7B18461037BD4680BD00BF80B586B08C
:103BB40000AF786039603B68002B0DD17B68DB680F
:103BC4003B613B69002B04D07B685A693B699A428C
:103BD4001BD801233B6118E039687868FFF7D6FDEC
:103BE400B860BB68012B01D801236EE0BB68B3F158
:103BF400FF3F01D1BB6868E07B685A69BB689A42A1
:103C040001D9BB6861E03B683B613B697B617B69CF
:103C140001337B617B685A697B699A4207D8022326
:103C24007B617A693B699A4201D900234DE0796945
:103C34007868FFF7ABFDB860BB68002B0ED0BB689B
:103C4400B3F1FF3F02D0BB68012B01D1BB683CE05C
:103C54007A693B699A42DAD1002336E000BF6FF0FB
:103C6400704279697868FFF749FE0346FB73FB7B72
:103C7400002B09D13B68002B06D07A693968786833
:103C8400FFF73CFE0346FB73FB7B002B14D17B68E0
:103C94007A69DA607B681B69B3F1FF3F14D07B68F3
:103CA4001B695A1E7B681A617B685B7943F00103C8
:103CB400DAB27B685A7107E0FB7B012B02D14FF02B
:103CC400FF3300E001237B617B6918461837BD464A
:103CD40080BD00BF80B586B000AF786039603B68B6
:103CE4009AB27B68DA807B689B687B617B69012B75
:103CF40005D07B681B685A697B699A4201D8022304
:103D040063E07B69002B08D17B681B681B78032B5D
:103D140003D17B681B685B6A7B617B69002B0DD1D7
:103D24007B681B681B891A463B689A4201D80223A8
:103D34004BE07B681B685B6A3B612CE07B681B681B
:103D44009B781B01FB601BE07B681B687969184644
:103D5400FFF71CFD78617B69B3F1FF3F01D10123BB
:103D640033E07B69012B05D97B681B685A697B6941
:103D74009A4201D8022328E03A68FB68D31A3B60D0
:103D84003A68FB689A42DFD27B681B6879691846F7
:103D9400FFF7DEFC38617B687A69DA603B69002BE7
:103DA40001D1022311E03B681A093B691A447B687C
:103DB4001A617B681B6803F130023B6803F00F0350
:103DC4005B011A447B685A61002318461837BD46C4
:103DD40080BD00BF90B587B000AF786039607B6864
:103DE400DB880133FB60FB689BB2002B03D07B684C
:103DF4001B69002B01D10423BBE0FB6803F00F0314
:103E0400002B40F0A6807B681B695A1C7B681A61F2
:103E14007B68DB68002B09D17B681B681B891A4609
:103E2400FB689A4200F295800423A2E0FB681B0918
:103E34007A6812689278013A1340002B40F0898026
:103E44007B681A687B68DB6819461046FFF79EFC9E
:103E540078617B69012B01D802238AE07B69B3F185
:103E6400FF3F01D1012384E07B681B685A697B69A9
:103E74009A4262D83B68002B01D1042379E07B6825
:103E84001A687B68DB6819461046FFF78FFE786175
:103E94007B69002B01D107236BE07B69012B01D1E6
:103EA400022366E07B69B3F1FF3F01D1012360E0A7
:103EB4007B681B681846FFF739FB0346002B01D0CB
:103EC400012356E07B681B6830334FF400720021F5
:103ED4001846FFF7D1FA7B681C687B681B68796910
:103EE4001846FFF735FC0346E36200233B6115E007
:103EF4007B681B6801221A717B681B681846FFF7F0
:103F040015FB0346002B01D0012332E07B681B68BC
:103F1400DA6A0132DA623B6901333B617B681B6810
:103F24009B781A463B699A42E2D87B681B687A6898
:103F34001268D16A3A698A1ADA627B687A69DA6045
:103F44007B681B6879691846FFF702FC02467B68A8
:103F54001A61FB689AB27B68DA807B681B6803F19C
:103F64003002FB6803F00F035B011A447B685A615B
:103F7400002318461C37BD4690BD00BF80B584B0F1
:103F840000AF7860396000217868FFF7A3FE03462C
:103F9400FB73FB7B002B2DD10023BB607B681A686D
:103FA4007B681B6919461046FFF704FB0346FB7345
:103FB400FB7B002B1DD17B685B691B78E52B04D050
:103FC4007B685B691B78002B07D1BB680133BB603E
:103FD400BA683B689A4202D10CE00023BB6001211D
:103FE4007868FFF7F7FE0346FB73FB7B002BD5D005
:103FF40000E000BFFB7B042B01D10723FB73FB7B99
:1040040018461037BD4680BD80B485B000AF7860D7
:1040140039603B681B331B781B029AB23B681A3326
:104024001B789BB213439BB29BB2FB607B681B78EB
:10403400032B0FD13B6815331B781B029AB23B68E4
:1040440014331B789BB213439BB29BB21B04FA68D4
:104054001343FB60FB6818461437BD4680BC7047A9
:1040640080B483B000AF786039607B681A333A68F3
:10407400D2B21A707B681B333A6892B21212D2B26F
:104084001A707B6814333A68120CD2B21A707B68C7
:1040940015333A68120C1212D2B21A7000BF0C37E0
:1040A400BD4680BC704700BF90B587B000AF786054
:1040B40039603B681B331B781B029AB23B681A3386
:1040C4001B789BB213439BB2002B01D0002364E006
:1040D4003B681B7803F03F035A1E13465B001344EE
:1040E4009B0013447B610123FB8100233B613EE081
:1040F4002C4A3B6913441B7801333A6813441B78F8
:104104001B0299B2274A3B6913441B781A463B6841
:1041140013441B789BB20A4613439BB2BB81FB89B1
:10412400002B1AD07B69FE2B12D8BB89184603F0EA
:10413400F1F803461C467B695A1C7A615B007A6875
:1041440013441B88184603F0E5F803469C4201D04B
:10415400002322E0BB89FB8106E0BB894FF6FF7296
:10416400934201D0002318E03B6901333B613B6972
:104174000C2BBDD93B681B7803F04003002B0BD0FC
:10418400FB89002B08D07B695B007A6813441B8889
:10419400002B01D0002300E0012318461C37BD4644
:1041A40090BD00BF4896000880B487B000AF786027
:1041B40039603B681B331B781B029AB23B681A3385
:1041C4001B789BB213439BB2002B01D0002358E011
:1041D4003B681B7803F03F035A1E13465B001344ED
:1041E4009B0013447B610123FB8100233B6133E08B
:1041F400264A3B6913441B7801333A6813441B78FD
:104204001B0299B2214A3B6913441B781A463B6846
:1042140013441B789BB20A4613439BB2BB81FB89B0
:10422400002B0FD07B69FE2B01D9002329E07B6989
:104234005A1C7A615B007A681344BA89FA81FA8954
:104244001A8006E0BB894FF6FF72934201D0002327
:1042540017E03B6901333B613B690C2BC8D93B68D0
:104264001B7803F04003002B0AD07B69FE2B01D995
:10427400002306E07B695B007A68134400221A80FD
:10428400012318461C37BD4680BC70474896000879
:1042940080B489B000AFF860B96011461A460B4685
:1042A400FB711346BB71BB680D33BA791A70BB68D6
:1042B4000B330F221A70BB680C3300221A70BB68D0
:1042C4001A3300221A70BB681B3300221A70FB7960
:1042D4005A1E13465B0013449B001344FB610023E6
:1042E400FB820023BB61FB8A4FF6FF72934207D027
:1042F400FB695A1CFA615B00FA6813441B88FB8251
:104304001C4ABB6913441B781A46BB681344FA8AD7
:10431400D2B21A70174ABB6913441B780133BA68C6
:104324001344FA8A120A92B2D2B21A70FB8A002B90
:1043340002D14FF6FF73FB82BB690133BB61BB69DA
:104344000C2BD0D9FB8A4FF6FF72934206D0FB693F
:104354005B00FA6813441B88002B03D1FB7943F0FC
:104364004003FB71BB68FA791A7000BF2437BD465D
:1043740080BC70474896000880B58CB000AFF860E8
:10438400B9607A603B600B22B968F868FFF756F8A9
:104394003B68052B2BD93B68FB6122E07B689A1CA8
:1043A4007A601B887B840023BB6217E0FB695A0098
:1043B4007B8C03F001031344FB617B8C5B087B84DF
:1043C400FB6903F48033002B05D0FB6983F4883345
:1043D40083F02103FB61BB6A0133BB62BB6A0F2B11
:1043E400E4D97B681B88002BD8D1FB693B60072389
:1043F400BB623B68DBB203F00F03DBB2303387F8F8
:104404002F3097F82F30392B04D997F82F300733F2
:1044140087F82F30BB6A5A1EBA6207F13002134480
:1044240097F82F2003F81C2C3B681B093B603B6862
:10443400002BDED107F11402BB6A13447E221A70EA
:1044440000237B6217E0FA687B6A13441B78802B95
:104454000ED9FA687B6A13441B78FF2B08D0BB6A19
:104464005A1E7B6A9A4200D10FE07B6A01337B6259
:104474007B6A01337B627A6ABB6A9A4205D2FA6824
:104484007B6A13441B78202BDDD17B6A5A1C7A6229
:10449400FA681A44BB6A072B08D8BB6A591CB9626C
:1044A40007F130010B4413F81C3C00E02023137087
:1044B4007B6A072BE9D900BF3037BD4680BD00BFFA
:1044C40080B485B000AF78600023FB730B23BB601E
:1044D400FB7BDAB25208DB011343DAB27B68591C66
:1044E40079601B781344FB73BB68013BBB60BB68FA
:1044F400002BEDD1FB7B18461437BD4680BC7047BA
:1045040080B586B000AF786000217868FFF7E2FBE1
:104514000346FB75FB7D002B01D0FB7DA0E0FF2350
:104524003B753B7D7B757B684FF6FF721A847B6815
:104534001A687B681B6919461046FFF73BF8034667
:10454400FB75FB7D002B40F085807B685B693B61DC
:104554003B691B78BB75BB7D002B02D10423FB7523
:104564007DE03B690B331B7803F03F03FB73BB7D9A
:10457400E52B07D0FB7B03F00803002B09D0FB7B62
:104584000F2B06D0FF237B757B684FF6FF721A84CE
:1045940055E0FB7B0F2B2FD17B68DB69002B4ED0C2
:1045A400BB7D03F04003002B0CD03B695B7B3B7568
:1045B400BB7D23F04003BB75BB7D7B757B68DA88CC
:1045C4007B681A84BA7D7B7D9A4212D13B690D3394
:1045D4001B783A7D9A420CD17B68DB6939691846AD
:1045E400FFF762FD0346002B03D07B7D013BDBB26A
:1045F40000E0FF237B7522E07B7D002B07D1386927
:10460400FFF75EFF03461A463B7D934224D07B6846
:104614009B690B331B7803F00103002B09D17B68E2
:104624009B690B2219463869FEF740FF0346002BAD
:1046340014D0FF237B757B684FF6FF721A84002128
:104644007868FFF7C7FB0346FB75FB7D002B3FF43F
:104654006EAF04E000BF02E000BF00E000BFFB7DDE
:1046640018461837BD4680BD80B586B000AF786067
:104674003960FF237B75FF233B750423FB757BE0C7
:104684007B681A687B681B6919461046FEF792FF1F
:104694000346FB75FB7D002B74D17B685B693B6132
:1046A4003B691B78BB75BB7D002B02D10423FB75D2
:1046B4006DE03B690B331B7803F03F03FB73BB7D59
:1046C400E52B0ED0BB7D2E2B0BD0FB7B23F02003E0
:1046D400082B0CBF01230023DBB21A463B689A4225
:1046E40002D0FF237B753EE0FB7B0F2B2BD1BB7DE0
:1046F40003F04003002B0CD03B695B7B3B75BB7D17
:1047040023F04003BB75BB7D7B757B68DA887B68CF
:104714001A84BA7D7B7D9A4212D13B690D331B7892
:104724003A7D9A420CD17B68DB6939691846FFF7F8
:104734003BFD0346002B03D07B7D013BDBB200E055
:10474400FF237B750FE07B7D002B07D13869FFF7D2
:10475400B7FE03461A463B7D934215D07B684FF65D
:10476400FF721A8410E000217868FFF733FB0346D8
:10477400FB75FB7D002B09D17B681B69002B7FF443
:104784007FAF04E000BF02E000BF00E000BFFB7D9C
:10479400002B02D07B6800221A61FB7D1846183773
:1047A400BD4680BD80B58CB000AF78607B689B69E6
:1047B4003B627B68DB69FB6107F10C030C22396AFD
:1047C4001846FEF73BFEFB7D03F00103002B35D0BA
:1047D4003B6A0B3300221A707B680022DA610123E2
:1047E400BB6213E007F10C01BB6AFA69386AFFF790
:1047F400C3FD7868FFF784FE034687F82F3097F8E7
:104804002F30002B06D1BB6A0133BB62BB6A632B1A
:10481400E8D900E000BFBB6A642B01D10723B3E0F1
:1048240097F82F30042B02D097F82F30ACE03B6A76
:104834000B33FA7D1A707B68FA69DA61FB7D03F049
:104844000203002B14D00023BB6202E0BB6A0133D5
:10485400BB62BB6A5B00FA6913441B88002BF5D169
:10486400BB6A19334A4AA2FB03239B087B6201E01B
:1048740001237B62796A7868FFF780FB034687F837
:104884002F3097F82F30002B4BD17B6A013B7B6292
:104894007B6A002B45D07B68DB881A467B6AD31A77
:1048A40019467868FFF716FA034687F82F3097F809
:1048B4002F30002B35D17B689B691846FFF700FE2B
:1048C4000346FB767B681A687B681B6919461046A9
:1048D400FEF770FE034687F82F3097F82F30002B31
:1048E4001ED17B68D8697B6859697B6ADAB2FB7E22
:1048F400FFF7CEFC7B681B6801221A7100217868DF
:10490400FFF768FA034687F82F3097F82F30002B0B
:1049140007D17B6A013B7B627B6A002BD2D100E02A
:1049240000BF97F82F30002B2CD17B681A687B6866
:104934001B6919461046FEF73DFE034687F82F30E3
:1049440097F82F30002B1DD17B685B692022002152
:104954001846FEF791FD7B6858697B689B690B22BA
:104964001946FEF76BFD7B685B690C337A689269C4
:104974000B32127802F01802D2B21A707B681B68EC
:1049840001221A7197F82F3018463037BD4680BD82
:104994004FECC44E80B584B000AF78607B68DB8890
:1049A400BB607B681B8C4FF6FF72934202D07B681E
:1049B4001B8C00E0BB6819467868FFF78BF9034647
:1049C400FB73FB7B002B33D17B681A687B681B6904
:1049D40019461046FEF7EEFD0346FB73FB7B002BE6
:1049E4001ED17B685B69202200211846FEF744FD36
:1049F4007B685B69E5221A707B681B6801221A7167
:104A04007B68DB881A46BB689A420BD2002178681F
:104A1400FFF7E0F90346FB73FB7B002BD4D002E0E5
:104A240000BF00E000BFFB7B042B01D10223FB731A
:104A3400FB7B18461037BD4680BD00BF80B588B0EB
:104A440000AF786039603B680933BB617B681B69E0
:104A5400002B6FD07B685B69FB600023FB6132E055
:104A6400FB695A1CFA61FA6813441B78FB75FB7DD9
:104A7400202B00D127E0FB7D052B01D1E523FB751D
:104A8400FB69092B04D1BB695A1CBA612E221A7026
:104A9400FB7D402B12D9FB7D5A2B0FD8FB680C33BE
:104AA4001B781A46FB69082B01D9102300E0082360
:104AB4001340002B02D0FB7D2033FB75BB695A1CCD
:104AC400BA61FA7D1A70FB690A2BC9D9FB68DA7AD4
:104AD4003B681A72FB681F331B781A06FB681E3387
:104AE4001B781B041343FA681D3212781202134315
:104AF400FA681C3212781A433B681A60FB6819334F
:104B04001B781B029AB2FB6818331B789BB21343C1
:104B14009BB29AB23B689A80FB6817331B781B02DE
:104B24009AB2FB6816331B789BB213439BB29AB2BA
:104B34003B68DA80BB6900221A703B689B69002BD2
:104B44004ED00023FB613B689B69BB617B681B699A
:104B5400002B40D03B68DB69002B3CD07B681B8C6E
:104B64004FF6FF72934236D07B68DB693B612AE0E3
:104B74007B890021184602F06FFB03467B817B8909
:104B8400002B02D10023FB6125E07B89FF2B09D98F
:104B9400FB695A1CFA61BA6913447A89120A92B2FF
:104BA400D2B21A703B68DB695A1EFB699A4202D87A
:104BB4000023FB610FE0FB695A1CFA61BA691344D4
:104BC4007A89D2B21A703B699A1C3A611B887B813C
:104BD4007B89002BCCD1BA69FB69134400221A707B
:104BE40000BF2037BD4680BD80B58AB000AF786075
:104BF40039603B681B683B6102E03B6901333B6100
:104C04003B691B782F2BF8D03B691B785C2BF4D0C5
:104C14007B68DB69FB6000237B617B69BB61BB69EB
:104C24005A1CBA613A6913441B78BB84BB8C1F2B92
:104C34005AD9BB8C2F2B57D0BB8C5C2B54D07B699F
:104C4400FE2B01D90623BEE1BB8CDBB2BB84BB8C3B
:104C5400DBB2802B26D9BB8CDBB2FF2B22D0BB6905
:104C64005A1CBA613A6913441B7887F82730BB8C05
:104C74001B029AB297F827309BB21344BB8497F86F
:104C840027303F2B03D997F827307E2B0AD997F882
:104C940027305BB2002B03DA97F82730FF2B01D1C2
:104CA400062390E1BB8C0121184602F0D5FA034695
:104CB400BB84BB8C002B01D1062384E1BB8C7F2BEE
:104CC40009D8BB8C19469948FEF716FC0346002BFD
:104CD40001D0062377E17B695A1C7A615B00FA688C
:104CE4001344BA8C1A809AE73A69BB691A443B6840
:104CF4001A60BB8C1F2B01D8042300E0002387F823
:104D0400263011E07B6903F10043013B5B00FA6844
:104D140013441B88BB84BB8C202B02D0BB8C2E2B52
:104D240006D17B69013B7B617B69002BEAD100E002
:104D340000BF7B69002B01D1062344E17B695B0042
:104D4400FA68134400221A807B689B690B22202195
:104D54001846FEF791FB0023BB6102E0BB690133F7
:104D6400BB61BB695B00FA6813441B88202BF5D038
:104D7400BB695B00FA6813441B882E2BEED0BB6919
:104D8400002B09D097F8263043F0030387F8263028
:104D940002E07B69013B7B617B69002B09D07B6965
:104DA40003F10043013B5B00FA6813441B882E2B7C
:104DB400EFD100233B62002387F827300823FB61EF
:104DC400BB695A1CBA615B00FA6813441B88BB8434
:104DD400BB8C002B00F0A880BB8C202B06D0BB8C96
:104DE4002E2B0AD1BA697B699A4206D097F82630ED
:104DF40043F0030387F8263095E03A6AFB699A4248
:104E040003D2BA697B699A4223D1FB690B2B06D181
:104E140097F8263043F0030387F826308BE0BA690D
:104E24007B699A4205D097F8263043F0030387F84C
:104E34002630BA697B699A427CD87B69BB610823B6
:104E44003B620B23FB6197F827309B0087F82730E0
:104E540069E0BB8C7F2B10D9BB8C184602F05AFA40
:104E640003460021184602F0F7F90346BB8497F87D
:104E7400263043F0020387F82630BB8CFF2B19D968
:104E8400FB695A1E3B6A9A4208D897F8263043F0C9
:104E9400030387F82630FB693B6244E07B689A6928
:104EA4003B6A591C39621344BA8C120A92B2D2B2C8
:104EB4001A702FE0BB8C002B07D0BB8C19461C4802
:104EC400FEF71AFB0346002B08D05F23BB8497F838
:104ED400263043F0030387F826301BE0BB8C402BBD
:104EE40009D9BB8C5A2B06D897F8273043F0020314
:104EF40087F827300EE0BB8C602B0BD9BB8C7A2B48
:104F040008D897F8273043F0010387F82730BB8C83
:104F1400203BBB847B689A693B6A591C3962134401
:104F2400BA8CD2B21A704BE700BF04E0589600085E
:104F34006496000800BF7B689B691B78E52B03D14E
:104F44007B689B6905221A70FB69082B04D197F8CA
:104F540027309B0087F8273097F8273003F00C039D
:104F64000C2B05D097F8273003F00303032B05D14E
:104F740097F8263043F0020387F8263097F8263056
:104F840003F00203002B17D197F8273003F0030333
:104F9400012B05D197F8263043F0100387F826300B
:104FA40097F8273003F00C03042B05D197F826302B
:104FB40043F0080387F826307B689B690B3397F826
:104FC40026201A70002318462837BD4680BD00BF2E
:104FD40080B584B000AF786039603B681B782F2BB4
:104FE40003D03B681B785C2B02D13B6801333B60E8
:104FF4007B6800229A603B681B781F2B09D800212C
:105004007868FEF767FE0346FB737B6800225A61EB
:1050140041E03B4619467868FFF7E6FD0346FB731B
:10502400FB7B002B32D17868FFF76AFA0346FB73E7
:105034007B689B69DB7ABB73FB7B002B0AD0FB7B11
:10504400042B25D1BB7B03F00403002B20D10523C3
:10505400FB731DE0BB7B03F00403002B1AD17B68B8
:105064005B69BB60BB680B331B7803F01003002B38
:1050740002D10523FB730EE07B681B68B9681846F0
:10508400FEF7C2FF02467B689A60C2E700BF02E0F7
:1050940000BF00E000BFFB7B18461037BD4680BD53
:1050A40080B487B000AF78604FF0FF333B617B681A
:1050B4001B68002B31D07B681B687B6102E07B6935
:1050C40001337B617B691B781F2B03D97B691B78B8
:1050D4003A2BF4D17B691B783A2B1CD17B681B6873
:1050E400FB60FB685A1CFA601B78303BBB60BB68F2
:1050F400092B0ED8FA687B699A420AD1BB68002B47
:1051040007D1BB683B617B6901337B617B687A694A
:105114001A603B6902E000233B613B6918461C3777
:10512400BD4680BC704700BF80B582B000AF7860D8
:1051340039607B6800221A717B684FF0FF32DA62B3
:1051440039687868FEF736FA0346002B01D003234A
:105154004BE07B6803F22E2301331B781B029AB2C7
:105164007B6893F82E329BB213439BB21BB2214A45
:10517400934201D0022338E07B68663303331B7803
:105184001A067B68663302331B781B0413437A6860
:10519400663201321278120213437A6892F866205A
:1051A400134323F07F43144A934201D100231CE0AC
:1051B4007B68823303331B781A067B68823302339D
:1051C4001B781B0413437A6882320132127812026C
:1051D40013437A6892F88220134323F07F43064AEC
:1051E400934201D1002300E0012318460837BD464D
:1051F40080BD00BF55AAFFFF4641540080B596B05C
:1052040000AFF860B9601346FB71FB6800221A60B6
:10521400B868FFF745FFF863FB6B002B01DA0B233B
:1052240092E29B4AFB6B52F82330BB63BB6B002BAF
:1052340001D10C2388E2FB68BA6B1A60BB6B1B7844
:10524400002B1AD0BB6B5B781846FEF759F803465F
:1052540087F8373097F8373003F00103002B0CD16F
:10526400FB79002B07D097F8373003F00403002BA9
:1052740001D00A2368E2002366E2BB6B00221A70A5
:10528400FB6BDAB2BB6B5A70BB6B5B781846FEF7EC
:1052940043F8034687F8373097F8373003F00103B3
:1052A400002B01D003234FE2FB79002B07D097F8A2
:1052B400373003F00403002B01D00A2344E2002317
:1052C4003B65396DB86BFFF72FFF034687F85730FE
:1052D40097F85730012B57D100233B642BE0BB6B6D
:1052E40003F130023B6C1B0103F5DF7313443B6392
:1052F4003B6B04331B78002B12D03B6B0B331B78B6
:105304001A063B6B0A331B781B0413433A6B0932AE
:105314001278120213433A6B083212781A4300E0EF
:1053240000223B6C9B0007F158010B4443F8442CCA
:105334003B6C01333B643B6C032BD0D900233B64AF
:105344003B6C002B02D03B6C013B3B643B6C9B00F1
:1053540007F15802134453F8443C3B653B6D002B62
:1053640005D0396DB86BFFF7DFFE034600E002237A
:1053740087F8573097F85730002B05D03B6C013332
:105384003B643B6C032BE1D997F85730032B01D1D5
:105394000123D9E197F85730002B01D00D23D3E135
:1053A400BB6B93F83C301B029AB2BB6B93F83B3057
:1053B4009BB213439BB21BB2B3F5007F01D00D2304
:1053C400C2E1BB6B93F847301B029AB2BB6B93F8F4
:1053D40046309BB213439BB29BB2FB64FB6C002B25
:1053E40012D1BB6B93F857301A06BB6B93F8563047
:1053F4001B041343BA6B92F8552012021343BA6B81
:1054040092F854201343FB64BB6BFA6C9A61BB6B38
:1054140093F84020BB6BDA70BB6BDB78012B05D0B3
:10542400BB6BDB78022B01D00D238DE1BB6BDB78EA
:105434001A46FB6C02FB03F3FB64BB6B93F83D2041
:10544400BB6B9A70BB6B9B78002B08D0BB6B9B78B3
:105454001A46BB6B9B78013B1340002B01D00D23F4
:1054640072E1BB6B93F842301B029AB2BB6B93F8A8
:1054740041309BB213439BB29AB2BB6B1A81BB6B94
:105484001B8903F00F039BB2002B03D00D235BE1B8
:105494008C000020BB6B93F844301B029AB2BB6BA8
:1054A40093F843309BB213439BB29BB2BB64BB6C77
:1054B400002B12D1BB6B93F853301A06BB6B93F8D5
:1054C40052301B041343BA6B92F851201202134357
:1054D400BA6B92F850201343BB64BB6B93F83F3014
:1054E4001B029AB2BB6B93F83E309BB213439BB240
:1054F400FB85FB8D002B01D10D2325E1FA8DFB6C7F
:105504001344BA6B1289120992B21344BB62BA6C87
:10551400BB6A9A4201D20D2316E1BA6CBB6AD31A54
:10552400BA6B9278B3FBF2F37B627B6A002B01D1F6
:105534000D2309E1012387F857307B6A40F6F572A1
:10554400934202D9022387F857307B6A4FF6F572EB
:10555400934202D9032387F857307B6A9A1CBB6BAA
:105564005A61BB6B3A6DDA61FA8D3B6D1A44BB6BC1
:105574001A623A6DBB6A1A44BB6B9A6297F8573049
:10558400032B1ED1BB6B1B89002B01D00D23DBE049
:10559400BB6B93F85F301A06BB6B93F85E301B0449
:1055A4001343BA6B92F85D2012021343BA6B92F85C
:1055B4005C201A43BB6B5A62BB6B5B699B007B64C8
:1055C4001FE0BB6B1B89002B01D10D23BCE0BB6B1F
:1055D4001A6AFB6C1A44BB6B5A6297F85730022B59
:1055E40003D1BB6B5B695B000AE0BB6B5A69134672
:1055F4005B0013445A08BB6B5B6903F0010313445B
:105604007B64BB6B9A697B6C03F2FF135B0A9A425F
:1056140001D20D2398E0BB6B4FF0FF321A61BB6BD4
:105624001A69BB6BDA60BB6B80225A7197F85730EA
:10563400032B7AD1BB6B93F861301B029AB2BB6B1C
:1056440093F860309BB213439BB21BB2012B6CD115
:105654003B6D01331946B86BFDF7ACFF0346002BD5
:1056640063D1BB6B00225A71BB6B93F82F321B02C0
:105674009AB2BB6B93F82E329BB213439BB21BB20C
:10568400334A934251D1BB6B93F833301A06BB6B48
:1056940093F832301B041343BA6B92F83120120290
:1056A4001343BA6B92F8302013432A4A93423CD1F5
:1056B400BB6B93F817321A06BB6B93F816321B04B4
:1056C4001343BA6B92F8152212021343BA6B92F881
:1056D40014221343204A934227D1BB6B93F81B3205
:1056E4001A06BB6B93F81A321B041343BA6B92F875
:1056F400192212021343BA6B92F818221A43BB6B95
:105704001A61BB6B93F81F321A06BB6B93F81E32F7
:105714001B041343BA6B92F81D2212021343BA6B93
:1057240092F81C221A43BB6BDA60BB6B97F85720C4
:105734001A700A4B1B8801339AB2084B1A80074B24
:105744001A88BB6BDA80002318465837BD4680BDE3
:1057540055AAFFFF525261417272416190000020CC
:1057640080B584B000AF78607B68FB60FB68002B79
:105774001AD0FB681B68002B16D0FB681B681B78CB
:10578400002B11D0FB681B68DA88FB689B889A425F
:105794000AD1FB681B685B781846FDF7B1FD034628
:1057A40003F00103002B01D0092300E00023184675
:1057B4001037BD4680BD00BF80B588B000AFF8602B
:1057C400B9601346FB71BB683B6107F110031846CF
:1057D400FFF766FCF861FB69002B01DA0B2328E074
:1057E400164AFB6952F82330BB61BB69002B02D017
:1057F400BB6900221A70FB68002B02D0FB680022F0
:105804001A70FA680D49FB6941F82320FB68002BE4
:1058140002D0FB79012B01D000230AE007F1080133
:1058240007F10C0300221846FFF7E8FC0346FB755A
:10583400FB7D18462037BD4680BD00BF8C0000208C
:1058440080B5ADF5147D00AF07F10C03186007F1C6
:1058540008031960FB1D1A7007F10C031B68002B69
:1058640001D10923A9E107F10C031B6800221A6086
:10587400FB1DFA1D127802F01F021A70FB1D1B7823
:1058840023F00103DAB207F1080107F5077318469C
:10589400FFF7B4FC034687F84F3297F84F32002BDA
:1058A40040F0898107F50473C7F8343207F1100317
:1058B400C7F8383207F108031A6807F50773114669
:1058C4001846FFF785FB034687F84F32D7F8303286
:1058D400C7F8483297F84F32002B06D1D7F8483230
:1058E400002B02D1062387F84F32FB1D1B7803F0EF
:1058F4001C03002B00F0D38097F84F32002B16D0F6
:1059040097F84F32042B07D107F507731846FEF7B3
:1059140049FF034687F84F32FB1DFA1D127842F007
:1059240008021A70D7F83032C7F8483214E0D7F8B2
:1059340048320B331B7803F01103002B03D00723E9
:1059440087F84F3208E0FB1D1B7803F00403002B9B
:1059540002D0082387F84F3297F84F32002B40F0DB
:10596400BF80FB1D1B7803F00803002B00F0B880F8
:10597400FDF75CFDC7F84402D7F848320E33D7F878
:105984004422D2B21A70D7F848320F33D7F84422DF
:1059940092B21212D2B21A70D7F848321033D7F832
:1059A4004422120CD2B21A70D7F848321133D7F805
:1059B4004422120ED2B21A70D7F848321633D7F8EE
:1059C4004422D2B21A70D7F848321733D7F8442297
:1059D40092B21212D2B21A70D7F848321833D7F8EA
:1059E4004422120CD2B21A70D7F848321933D7F8BD
:1059F4004422120ED2B21A70D7F848320B33002266
:105A04001A70D7F848321C3300221A70D7F848327B
:105A14001D3300221A70D7F848321E3300221A7040
:105A2400D7F848321F3300221A70D7F81C32D7F83F
:105A340048121846FEF7E8FAC7F840020021D7F8E2
:105A44004802FEF70DFBD7F81C3201221A71D7F871
:105A54004032002B44D0D7F81C32DB6AC7F84432FA
:105A6400D7F81C32D7F840121846FEF74BF8034615
:105A740087F84F3297F84F32002B31D1D7F81C32C8
:105A8400D7F84022013ADA60D7F81C32D7F844122A
:105A94001846FDF78FFD034687F84F3220E097F84C
:105AA4004F32002B1CD1D7F848320B331B7803F04C
:105AB4001003002B03D0042387F84F3210E0FB1DA2
:105AC4001B7803F00203002B0AD0D7F848320B33BB
