:020000040800F2
:1000000000000120A5990008E5010008F1010008A1
:10001000F9010008010200080902000800000000C0
:1000200000000000000000000000000011020008B5
:100030001D02000800000000290200083502000827
:10004000E9990008E9990008E9990008E999000888
:10005000E9990008E9990008E9990008E999000878
:10006000E9990008E9990008E9990008E999000868
:10007000E9990008E9990008E9990008E999000858
:10008000E9990008E9990008E9990008E999000848
:10009000E9990008E9990008E9990008E999000838
:1000A000E9990008E9990008E9990008E999000828
:1000B000E9990008E9990008E9990008E999000818
:1000C000E9990008E9990008E9990008E999000808
:1000D000E9990008E9990008E9990008E9990008F8
:1000E000E9990008E9990008E9990008E9990008E8
:1000F000E9990008E9990008E9990008E9990008D8
:10010000E999000841020008E9990008E999000806
:10011000E9990008E9990008E9990008E9990008B7
:10012000E9990008E9990008E9990008E9990008A7
:1001300000000000000000000000000000000000BF
:1001400000000000000000000000000000000000AF
:10015000000000000000000000000000000000009F
:10016000000000000000000000000000000000008F
:10017000000000000000000000000000000000007F
:10018000000000000000000000000000000000006F
:10019000000000000000000000000000000000005F
:1001A000000000000000000000000000000000004F
:1001B000000000000000000000000000000000003F
:1001C000000000000000000000000000000000002F
:1001D000000000000000000000000000000000001F
:0401E0005FF8E0F1F3
:1001E40080B400AFBD465DF8047B704780B400AFB7
:1001F400FEE700BF80B400AFFEE700BF80B400AFED
:10020400FEE700BF80B400AFFEE700BF80B400AFDC
:10021400BD465DF8047B704780B400AFBD465DF811
:10022400047B704780B400AFBD465DF8047B704723
:1002340080B400AFBD465DF8047B704780B500AF65
:1002440002F01CFC80BD00BF80B500AF154A154B01
:100254001B6843F0010313601249124B5A68124B96
:1002640013404B600F4A0F4B1B6823F0847323F435
:10027400803313600B4A0B4B1B6823F480231360F9
:10028400084A084B5B6823F4FE035360054B4FF4A4
:100294001F029A6000F07AF8044B4FF000629A60F3
:1002A40080BD00BF001002400000FFF800ED00E038
:1002B40080B485B000AF0023FB600023BB60002343
:1002C4007B602D4B5B6803F00C03FB60FB68042B25
:1002D40007D0082B09D0002B34D1284B284A1A60A8
:1002E40034E0264B264A1A6030E0234B5B6803F463
:1002F4007013BB60204B5B6803F480337B60BB6886
:100304009B0C0233BB607B68002B06D1BB681D4A83
:1003140002FB03F3194A136013E0174B5B6803F401
:100324000033002B06D0BB68164A02FB03F3134AC2
:10033400136006E0BB68124A02FB03F30F4A136022
:1003440004E003E00D4B0E4A1A6000BF0A4B5B68E1
:1003540003F0F0031B090C4AD35CDBB2FB60074BD0
:100364001A68FB6822FA03F3044A13601437BD4683
:100374005DF8047B704700BF0010024000000020BD
:1003840000127A0000093D000400002080B500AF8F
:1003940000F002F880BD00BF80B483B000AF00233A
:1003A4007B6000233B603A4A394B1B6843F480333B
:1003B4001360374B1B6803F400333B607B680133E5
:1003C4007B603B68002B03D17B68B3F5A06FF0D151
:1003D4002F4B1B6803F40033002B02D001233B6036
:1003E40001E000233B603B68012B4BD1294A294B98
:1003F4001B6843F010031360264A264B1B6823F046
:1004040003031360234A234B1B6843F00203136066
:100414001F4A1F4B5B6853601D4A1D4B5B6853604A
:100424001B4A1B4B5B6843F480635360184A184BA8
:100434005B6823F47C135360154A154B5B6843F4E3
:10044400E8135360124A124B1B6843F08073136025
:1004540000BF0F4B1B6803F00073002BF9D00C4A4C
:100464000B4B5B6823F003035360094A084B5B683A
:1004740043F00203536000BF054B5B6803F00C03B9
:10048400082BF9D10C37BD465DF8047B704700BFDB
:10049400001002400020024080B483B000AF7860B6
:1004A4007B6802E07B68013B7B607B68002BF9D1B1
:1004B4000C37BD465DF8047B704700BF80B500AFC4
:1004C40000F008F800F04EF800F088F800F09CF80E
:1004D40080BD00BF80B582B000AF4FF480700121B1
:1004E40008F098F96820012108F0BCF91023FB7189
:1004F4000323BB710223BB803B1D1748194607F039
:10050400DBF80223BB803B1D1448194607F0D4F8DE
:100514000323BB711823FB714CF20373BB803B1D97
:100524000F48194607F0C8F84FF68073BB803B1D8F
:100534000A48194607F0C0F84FF40B63BB803B1D13
:100544000748194607F0B8F80348022107F0E2F912
:100554000837BD4680BD00BF000C014000180140B3
:100564000014014080B596B000AF02233B60002325
:100574007B600523BB600023FB6000233B610023F9
:100584007B614FF08053BB610023FB6100237B62DE
:1005940000233B621023BB620023FB6200237B63C6
:1005A4000023FB630023BB634FF480533B640023AD
:1005B4007B640023BB640023FB643B463B653B46F2
:1005C4007B6507F11C03184608F060FD002001213B
:1005D40008F0AEFF5837BD4680BD00BF80B500AF00
:1005E4000848022107F096F940F6FF70FFF754FF20
:1005F4000448022107F080F940F6FF70FFF74CFF32
:1006040080BD00BF0018014080B500AF4FF0C0436B
:10061400CF221A80934B00221A80924B81221A8097
:10062400904B30221A804FF0C043ED221A808D4B3C
:1006340064221A808B4B03221A808A4B12221A805E
:10064400884B81221A804FF0C043E8221A80854BE0
:1006540085221A80834B10221A80824B78221A80BA
:100664004FF0C043CB221A807E4B39221A807D4B37
:100674002C221A807B4B00221A807A4B34221A8057
:10068400784B02221A804FF0C043F7221A80754B30
:1006940020221A804FF0C043EA221A80714B0022B4
:1006A4001A80704B00221A804FF0C043B1221A8086
:1006B4006C4B00221A806B4B1B221A804FF0C043F4
:1006C400B6221A80674B0A221A80664BA2221A802D
:1006D4004FF0C043C0221A80624B35221A804FF07B
:1006E400C043C1221A805F4B11221A804FF0C043CD
:1006F400C5221A805B4B45221A805A4B45221A8028
:100704004FF0C043C7221A80564BA2221A804FF0E2
:10071400C043F2221A80534B00221A804FF0C04388
:1007240026221A804F4B01221A804FF0C043E02248
:100734001A804C4B0F221A804A4B26221A80494BAE
:1007440024221A80474B0B221A80464B0E221A8011
:10075400444B09221A80434B54221A80414BA8224D
:100764001A80404B46221A803E4B0C221A803D4B85
:1007740017221A803B4B09221A803A4B0F221A8007
:10078400384B0F221A80374B00221A804FF0C04397
:10079400E1221A80334B00221A80324B19221A802C
:1007A400304B1B221A802F4B04221A802D4B10220F
:1007B4001A802C4B07221A802A4B2A221A80294B92
:1007C40047221A80274B39221A80264B03221A808B
:1007D400244B06221A80234B06221A80214B3022F6
:1007E4001A80204B38221A801E4B0F221A804FF099
:1007F400C04336221A801B4BC8221A804FF0C043D4
:100804002A221A80174B00221A80164B00221A80C3
:10081400144B00221A80134BEF221A804FF0C0436E
:100824002B221A800F4B00221A800E4B00221A80B2
:100834000C4B01221A800B4B3F221A804FF0C0430D
:100844003A221A80074B55221A804FF0C0431122D6
:100854001A800548FFF720FE4FF0C04329221A8072
:1008640080BD00BF00000260FCBF020090B484B0F1
:1008740000AF0446084611461A462346FB80034649
:10088400BB800B467B8013463B800023FB604FF00C
:10089400C0432A221A80294AFB881B0A9BB2138070
:1008A400264BFA88D2B292B21A802449FA887B88FD
:1008B4001344013B1B129BB20B802049FA887B88AE
:1008C40013449BB2013B9BB2DBB29BB20B804FF053
:1008D400C0432B221A80194ABB881B0A9BB213807F
:1008E400164BBA88D2B292B21A801449BA883B889D
:1008F4001344013B1B129BB20B801049BA883B88FE
:1009040013449BB2013B9BB2DBB29BB20B804FF012
:10091400C0432C221A8005E0084A3B8B1380FB68F5
:100924000133FB607B883A8802FB03F31A46FB68B9
:100934009A42F1D81037BD4690BC7047000002605F
:1009440080B483B000AF03460A46FB801346BB80E5
:100954004FF0C0432A221A80184AFB881B0A9BB214
:100964001380164BFA88D2B292B21A80134AFB88CB
:100974001B0A9BB21380114BFA88D2B292B21A802E
:100984004FF0C0432B221A800C4ABB881B0A9BB22F
:1009940013800A4BBA88D2B292B21A80074ABB8833
:1009A4001B0A9BB21380054BBA88D2B292B21A804A
:1009B4000C37BD465DF8047B704700BF0000026041
:1009C40090B482B000AF0446084611461A46234646
:1009D400FB800346BB800B467B8013463B804FF075
:1009E400C0432A221A80204AFB881B0A9BB2138028
:1009F4001D4BFA88D2B292B21A801B49FA887B88BE
:100A04001344013B1B129BB20B801749FA887B8865
:100A140013449BB2013B9BB2DBB29BB20B804FF001
:100A2400C0432B221A80104ABB881B0A9BB2138036
:100A34000D4BBA88D2B292B21A800B49BA883B885D
:100A44001344013B1B129BB20B800749BA883B88B5
:100A540013449BB2013B9BB2DBB29BB20B800837C1
:100A6400BD4690BC704700BF0000026080B582B0F4
:100A740000AF0346FB800B46BB8013467B80FA889D
:100A8400BB8810461946FFF75BFF4FF0C0432C228A
:100A94001A80034A7B8813800837BD4680BD00BF97
:100AA4000000026080B483B000AF0023FB80002309
:100AB400BB8000237B80124B1B88FB80104B1B8860
:100AC400FB800F4B1B88BB800D4B1B887B80FB88F6
:100AD40023F4FF6323F007039AB2BB889B0A9BB2FB
:100AE4005B019BB213449AB27B88DB0A9BB213442A
:100AF4009BB218460C37BD465DF8047B704700BFB7
:100B04000000026080B582B000AF03460A46FB8055
:100B14001346BB80FA88BB8810461946FFF710FFBE
:100B24004FF0C0432E221A80FFF7BCFF034618463D
:100B34000837BD4680BD00BF80B584B000AF786083
:100B44000B46FB701346BB70BB780C2B02D0102BEA
:100B540003D005E01A4BFB6002E01A4BFB6000BFB8
:100B6400FB78203B9BB2FA68927892B202FB03F3C3
:100B74007B81FB685B6814481946012204F058FE27
:100B840003461A46114B1A70104B1B78002B11D1D7
:100B94007B890D48194605F085FBFB689B780A485C
:100BA40079681A460A4B05F009F8074805F05EFB18
:100BB400012300E0002318461037BD4680BD00BF66
:100BC400240000202C000020C8020020EC04002097
:100BD400C40200202DE9F04387B000AF0646084662
:100BE40011461A463346FB800346BB800B46FB7016
:100BF40013463B806B461E4697F838100B46013B64
:100C0400FB60CAB24FF000034FEAC30949EA5279C4
:100C14004FEAC208CAB24FF00003DD0045EA52753C
:100C2400D4000B460733DB08DB00ADEB030D6B464A
:100C34000033BB6097F838300C2B02D0102B03D054
:100C440005E0254B3B6102E0244B3B6100BF3B695F
:100C54001B789AB23B695B789BB2F888B988FFF736
:100C6400AFFE4FF0C0432C221A80B968FA7897F887
:100C74003830084611461A46FFF75EFF0023BB755D
:100C84001FE0BB7DBA68D35C7B750023FB7510E065
:100C94007B7D5BB2002B03DA114A3B88138002E0B0
:100CA4000F4B00221A807B7D5B007B75FB7D01333B
:100CB400FB753B691B78FA7D9A42E9D3BB7D01330E
:100CC400BB753B695B78BA7D9A42DAD3B5461C376B
:100CD400BD46BDE8F08300BF240000202C000020A6
:100CE4000000026090B589B002AFBA601A460346AC
:100CF400FB810B46BB811346FB8097F828300C2BF5
:100D040002D0102B03D005E01D4B7B6102E01D4B8C
:100D14007B6100BF2DE0FA897B691B78C3F1F00386
:100D24009A4207DD0023FB817B695B789AB2BB8919
:100D34001344BB81BA897B695B78C3F5A0739A427B
:100D440003DD0023BB810023FB81BB681A78F8898B
:100D5400B989FC8897F8283000932346FFF73AFFB7
:100D64007B691B789AB2FB891344FB81BB6801330E
:100D7400BB60BB681B78002BCDD11C37BD4690BD32
:100D8400240000202C00002090B58BB002AFBA6084
:100D94001A460346FB810B46BB811346FB800023A6
:100DA400FB770023BB6197F830300C2B02D0102B5B
:100DB40003D005E02A4B7B6102E02A4B7B6100BF34
:100DC400BB68BB61BB69002B0CD1F989BA89FC886B
:100DD40097F8303000930846114630222346FFF737
:100DE400F9FE39E008E0BB691F4AA2FB0323DB08D4
:100DF400BB61FB7F0133FB77BB69002BF3D128E098
:100E0400FB7F5A1EFA77013B9BB27A69127892B241
:100E140002FB03F39AB2FB89134498B2B968124BEC
:100E2400A3FB0123DA0813469B0013445B00CA1A90
:100E3400D3B23033DAB2B989FC8897F830300093F2
:100E44002346FFF7C7FEBB68074AA2FB0323DB0860
:100E5400BB60BB68002BD3D12437BD4690BD00BF17
:100E6400240000202C000020CDCCCCCC80B588B050
:100E740000AFF860B9601346FB71BB681B78FB7563
:100E8400BB685B78BB75FB790C2B02D0102B03D0AD
:100E940005E0264BBB6102E0254BBB6100BFBB7D77
:100EA4007E2B0ED8FB7D813BBE2202FB03F2BB7D71
:100EB400403B1344BA699278520002FB03F3FB618E
:100EC4000DE0FB7D813BBE2202FB03F2BB7D413B77
:100ED4001344BA699278520002FB03F3FB61BB69C5
:100EE4005B6814481946012204F0A2FC03461A4622
:100EF400114B1A70104B1B78002B11D10D48F96956
:100F040005F0D0F9BB699B785B000A48F9681A467A
:100F14000A4B04F053FE074805F0A8F9012300E04A
:100F2400002318462037BD4680BD00BF14000020B2
:100F34001C000020C8020020EC040020C402002091
:100F44002DE9F0438BB000AFBA601A460346FB812B
:100F54000B46BB811346FB806B461E4697F8483010
:100F640059004B1EBB610B461A464FF000034FEA73
:100F7400C30949EA52794FEAC2080B461A464FF0B0
:100F84000003DD0045EA5275D4000B460733DB0845
:100F9400DB00ADEB030D6B4600337B6197F8483003
:100FA4000C2B02D0102B03D005E02E4BFB6102E08A
:100FB4002D4BFB6100BFFB691B789AB2FB695B7820
:100FC4009BB2F889B989FFF7FBFC4FF0C0432C2290
:100FD4001A807A6997F848301046B9681A46FFF7BC
:100FE40045FF0346002B37D00023BB842EE0BB8C87
:100FF4005B007A69D35C7B847B8C1B0299B2BB8CCB
:101004005B0001337A69D35C9BB20A4613439BB2FB
:101014007B840023FB8410E07B8C1BB2002B03DA5F
:10102400124AFB88138002E0104B00221A807B8C4A
:101034005B007B84FB8C0133FB84FB691B789BB2D4
:10104400FA8C9A42E8D3BB8C0133BB84FB695B788E
:101054009BB2BA8C9A42CAD3B5462C37BD46BDE87A
:10106400F08300BF140000201C0000200000026078
:1010740090B589B002AFBA601A460346FB810B46AD
:10108400BB811346FB8097F828300C2B02D0102B21
:1010940003D005E03A4B7B6102E03A4B7B6100BF31
:1010A40067E0BB681B78DBB25BB2002B2FDAFA89EE
:1010B4007B691B78C3F1F0039A4207DD0023FB81AF
:1010C4007B695B789AB2BB891344BB81BA897B691B
:1010D4005B78C3F5A0739A4203DD0023BB81002330
:1010E400FB81F989BA89FC8897F82830009308466F
:1010F4001146BA682346FFF723FF7B691B789AB22F
:10110400FB891344FB81BB680233BB6031E0FA897D
:101114007B691B785B08DBB2C3F1F0039A4207DDFD
:101124000023FB817B695B789AB2BB891344BB8142
:10113400BA897B695B78C3F5A0739A4203DD002307
:10114400BB810023FB81BB681A78F889B989FC88C4
:1011540097F8283000932346FFF73CFD7B691B7802
:101164005B08DBB29AB2FB891344FB81BB68013391
:10117400BB60BB681B78002B93D11C37BD4690BD68
:10118400140000201C00002080B582B002AF00F0E3
:10119400CBF800F035F8FFF791F900230093002015
:1011A4000021F0224FF4A073FFF760FB0F481049B1
:1011B400012204F0F9FA03461A460E4B1A700D4B3D
:1011C4001B78002B10D10C230093002000210A4A25
:1011D4001F23FFF74DFF1023009300201021074A1F
:1011E4004FF4FC63FFF744FFFEE700BF94000020C8
:1011F4005C9A0008EC040020609A0008889A0008B1
:1012040080B582B000AF4FF4C06006F0EFF8312330
:101214003B7100237B710023BB710123FB713B1DD8
:10122400184606F0F7F80837BD4680BD80B500AF14
:10123400024807F01BFE0346184680BD002000103C
:1012440080B58EB000AF78603960174807F038FE7B
:101254001648002107F0B4FD154BFB607B683B6129
:1012640000237B613B689B08BB610023FB618023F7
:101274003B624FF400737B624FF40063BB62002354
:10128400FB624FF400533B6300237B6307F10C03C1
:101294000648194607F02CFD0448012107F090FD8B
:1012A4003837BD4680BD00BF00F000104404024042
:1012B4008080014080B58EB000AF786039601748F7
:1012C40007F0FEFD1648002107F07AFD154BFB6080
:1012D4007B683B6110237B613B689B08BB610023F7
:1012E400FB6180233B624FF400737B624FF4006325
:1012F400BB620023FB624FF400533B6300237B6318
:1013040007F10C030648194607F0F2FC04480121D2
:1013140007F056FD3837BD4680BD00BF00F0001011
:10132400440402408080014080B582B000AF302088
:10133400012107F097FA4FF4F853BB800323BB71E4
:101344001823FB713B1D0B48194606F0B5F904231D
:10135400BB803B1D0848194606F0AEF94FF4806087
:10136400012107F057FA0220012107F053FA083748
:10137400BD4680BD001001400014014080B582B01C
:1013840000AF06F021FC002006F0ACFC002006F0C3
:10139400B9FC4FF48060002107F03CFA4FF4F85395
:1013A400BB800423FB713B1D0648194606F084F9F3
:1013B4000423BB803B1D0448194606F07DF9083719
:1013C400BD4680BD001001400014014080B582B0CC
:1013D40000AF0023FB7106F0F7FB00F07BF8034637
:1013E400FB71FB79002B01D0FB793BE000F08CF919
:1013F4000346FB71FB79002B01D0FB7932E01B4BD8
:1014040001221A75194B00221A60184B00225A60E7
:10141400164B00229A60154B0022DA60134B00220F
:101424001A61124806F010FCFB79002B04D1104815
:1014340000F030FA0346FB71FB79002B08D10C4B0A
:10144400B3F84C301B04184600F0E2FD0346FB7170
:10145400FB79002B05D14FF4006000F06DFD0346CD
:10146400FB71FB7918460837BD4680BD5405002042
:101474000405002080B582B000AF0423FB7100F0A6
:1014840011F80346FB71FB79042B01D1002305E01D
:10149400FB79FF2B01D1022300E001231846083712
:1014A400BD4680BD80B582B000AF00237B603B1D8C
:1014B400184601F0BFF90346002B01D0FF2305E0D5
:1014C4007B685B0ADBB203F00F03DBB21846083714
:1014D400BD4680BD80B586B000AF0023FB750023F8
:1014E4003B610023FB600023BB6000237B607C4BDB
:1014F400B2221A757A4B00221A60794B00225A6084
:10150400774B00229A60764B0022DA60744B0022FB
:101514001A61734806F098FB032006F0F3FB0120E0
:1015240006F0E0FB6F4B00221A606E4B00225A60FB
:101534006C4B00229A606B4B0022DA60694B4FF4CB
:1015440080621A61674806F045FC01F0C9FA034657
:10155400FB75FB7D002B01D0FB7DBDE0614B4FF49F
:10156400D5721A605F4B08225A605E4B40229A6023
:101574005C4B0022DA605B4B4FF480621A6159487D
:1015840006F028FC01F0D2FA0346FB75FB7D002B24
:1015940006D1554B01221A604FF080437B6017E05F
:1015A400504B00221A604F4B37225A604D4B402259
:1015B4009A604C4B0022DA604A4B4FF480621A6105
:1015C400484806F007FC372001F0ECFA0346FB75A7
:1015D400444B00221A60434B37225A60414B40224D
:1015E4009A60404B0022DA603E4B4FF480621A61ED
:1015F4003C4806F0EFFB372001F0D4FA0346FB75B4
:10160400FB7D002B67D14BE0364B00221A60354B33
:1016140037225A60334B40229A60324B0022DA6000
:10162400304B4FF480621A612E4806F0D3FB37200A
:1016340001F0B8FA0346FB75FB7D002B01D0FB7D5E
:101644004AE07B6843F0004343F48013254A136067
:10165400244B29225A60234B40229A60214B0022BA
:10166400DA60204B4FF480621A611E4806F0B2FB28
:1016740001F0B6FA0346FB75FB7D002B01D0FB7D20
:101684002AE0002006F0FEFB38613B69DB0F012BEA
:101694000CBF01230023DBB2BB60FB680133FB609A
:1016A400BB68002B04D1FB684FF6FE729342ABD9A2
:1016B400FB684FF6FE72934203D91B23FB75FB7D37
:1016C4000AE03B6903F080433B613B69002B02D095
:1016D400054B02221A60FB7D18461837BD4680BDB3
:1016E40054050020F00400204800002080B582B09A
:1016F40000AF0023FB71002006F004FBFB791846C1
:101704000837BD4680BD00BF80B582B000AF00235E
:10171400FB710123BB8006F017FB0346002B03D1AA
:101724002523FB71FB79A7E0554B1B68042B33D0B1
:10173400544B00221A60534B02225A60514BC02270
:101744009A60504B0022DA604E4B4FF480621A616B
:101754004C4806F03FFB01F06BFA0346FB71FB7942
:10176400002B01D0FB7987E0002006F08BFB0246BA
:10177400454B1A60042006F085FB0246424B5A6032
:10178400082006F07FFB02463F4B9A600C2006F0CF
:1017940079FB02463C4BDA60394B1B68002B0BD0BB
:1017A400374B1B68012B07D0354B1B68062B03D026
:1017B400334B1B68022B1ED1324B00221A60314B73
:1017C40003225A602F4B40229A602E4B0022DA608B
:1017D4002C4B4FF480621A612A4806F0FBFA3B1D39
:1017E4000320194601F058FA0346FB71FB79002BDC
:1017F40001D0FB7940E0224B1B68042B39D0BB8815
:101804001A46224B1A60BB881B041A461D4B1A60E9
:101814001C4B09225A601B4BC0229A60194B0022B0
:10182400DA60184B4FF480621A61164806F0D2FA57
:1018340001F0FEF90346FB71FB79002B01D0FB7923
:101844001AE0002006F01EFB0246114B1A60042029
:1018540006F018FB02460E4B5A60082006F012FBF5
:1018640002460B4B9A600C2006F00CFB0246084B18
:10187400DA600023FB71FB7918460837BD4680BD4A
:1018840048000020F00400205C0000206C000020D0
:101894004C00002080B485B000AF78600023BB7397
:1018A4000023FB737E4B1B68DAB27B6883F84E20FF
:1018B4007C4B1B689AB27B68A3F84C207A4B1B685C
:1018C4001B0EFB73FB7B9B09DAB27B681A70FB7BF4
:1018D40003F03C039B10DAB27B685A70FB7B03F085
:1018E4000303DAB27B689A706F4B1B6803F47F03BF
:1018F4001B0CFB737B68FA7BDA706B4B1B6803F47D
:101904007F431B0AFB737B68FA7B1A71664B1B6867
:10191400FB737B68FA7B5A71634B5B681B0EFB732A
:10192400FB7B9BB21B019AB27B68DA805E4B5B68DF
:1019340003F47F031B0CFB737B68DB889AB2FB7B8D
:101944001B09DBB29BB213439AB27B68DA80FB7B40
:1019540003F00F03DAB27B681A72534B5B6803F42B
:101964007F431B0AFB73FB7BDB09DAB27B685A7289
:10197400FB7B03F040039B11DAB27B689A72FB7B1A
:1019840003F020035B11DAB27B68DA72FB7B03F0AD
:1019940010031B11DAB27B681A737B6800225A7336
:1019A4003F4B1B68002B03D03D4B1B68012B7DD1A3
:1019B400FB7B03F003039B021A467B681A613A4BD4
:1019C4005B68FB737B681B69FA7B92001A437B6834
:1019D4001A61354B9B681B0EFB737B681B69FA7B92
:1019E4009209D2B21A437B681A61FB7B03F0380375
:1019F400DB10DAB27B681A75FB7B03F00703DAB2FB
:101A04007B685A75284B9B6803F47F031B0CFB739C
:101A1400FB7B5B09DAB27B689A75FB7B03F01C03E2
:101A24009B10DAB27B68DA75FB7B03F00303DBB24D
:101A34005B00DAB27B681A761B4B9B6803F47F4326
:101A44001B0AFB737B681B7EDAB2FB7BDB09DBB210
:101A54001343DAB27B681A767B681B695A1C7B686D
:101A64005A647B681B7EDBB2023301229A407B6896
:101A74005B6C02FB03F27B685A647B681B7ADBB203
:101A84001A46012393401A467B689A647B685B6C10
:101A94007A68926C02FB03F27B685A643BE000BFF5
:101AA400480000206C0000204C000020AA4B1B685A
:101AB400022B30D1A94B5B68FB73FB7B03F03F0324
:101AC4001B041A467B681A61A44B9B681B0EFB73AC
:101AD4007B681B69FA7B12021A437B681A619F4B6D
:101AE4009B6803F47F031B0CFB737B681A69FB7B05
:101AF4001A437B681A61994B9B6803F47F431B0A62
:101B0400FB737B681B690133DA047B685A647B6866
:101B14004FF400729A64FB7B03F040039B11DAB22A
:101B24007B685A76FB7B03F03F03DBB25B00DAB2DF
:101B34007B689A76894B9B68FB737B689B7EDAB2E1
:101B4400FB7BDB09DBB21343DAB27B689A76FB7B5F
:101B540003F07F03DAB27B68DA76804BDB681B0E16
:101B6400FB73FB7BDB09DAB27B681A77FB7B03F040
:101B740060035B11DAB27B685A77FB7B03F01C03CA
:101B84009B10DAB27B689A77FB7B03F00303DBB22A
:101B94009B00DAB27B68DA77704BDB6803F47F036F
:101BA4001B0CFB737B68DB7FDAB2FB7B9B09DBB22C
:101BB4001343DAB27B68DA77FB7B03F020035B1113
:101BC400DAB27B6883F820207B68002283F8212026
:101BD400FB7B03F00103DAB27B6883F822205F4BBE
:101BE400DB6803F47F431B0AFB73FB7BDB09DAB27C
:101BF4007B6883F82320FB7B03F040039B11DAB25C
:101C04007B6883F82420FB7B03F020035B11DAB2AA
:101C14007B6883F82520FB7B03F010031B11DAB2E9
:101C24007B6883F82620FB7B03F00C039B10DAB25D
:101C34007B6883F82720FB7B03F00303DAB27B681D
:101C440083F82820454BDB68FB73FB7B5B08DAB227
:101C54007B6883F829207B68012283F82A20404B83
:101C64001B681B0EFB737B68FA7B83F82C203C4BB0
:101C74001B6803F47F031B0CFB73FB7B9BB21B02EF
:101C84009AB27B68DA85364B1B6803F47F431B0AE0
:101C9400FB737B68DB8D9AB2FB7B9BB213439AB2D6
:101CA4007B68DA852E4B1B68FB73FB7B1B061A468D
:101CB4007B681A632A4B5B681B0EFB737B681B6B88
:101CC400FA7B12041A437B681A63254B5B6803F49E
:101CD4007F031B0CFB737B681B6BFA7B12021A439A
:101CE4007B681A631E4B5B6803F47F431B0AFB7318
:101CF4007B681A6BFB7B1A437B681A63184B5B681F
:101D0400FB737B68FA7B83F83420154B9B681B0EAE
:101D1400FB737B68FA7B83F83520114B9B6803F4D3
:101D24007F031B0CFB73FB7B1B061A467B689A63C1
:101D34000B4B9B6803F47F431B0AFB737B689B6B11
:101D4400FA7B12041A437B689A63054B9B68FB7306
:101D54007B689B6B06E000BF480000204C0000201D
:101D64005C000020FA7B12021A437B689A63244BBE
:101D7400DB681B0EFB737B689A6BFB7B1A437B68E7
:101D84009A631F4BDB6803F47F031B0CFB737B68B4
:101D940093F83C30DAB2FB7B1B09DBB21343DAB2B3
:101DA4007B6883F83C20FB7B9BB203F00F039BB260
:101DB4001B029AB27B68DA87114BDB6803F47F431A
:101DC4001B0AFB737B68DB8F9AB2FB7B9BB21343CA
:101DD4009AB27B68DA870A4BDB68FB73FB7B5B0890
:101DE400DAB27B6883F840207B68012283F84120C3
:101DF400BB7B18461437BD465DF8047B704700BFB3
:101E04005C00002080B584B000AF78600023FB73D1
:101E14000023BB73474800F033FD0346FB73FB7B91
:101E2400002B01D0FB7B81E0424B1B789B09BB73E9
:101E34007B68BA7B1A703F4B1B7803F020035B115D
:101E4400BB737B68BA7B5A703A4B9B78BB73BB7B82
:101E54009BB21B029AB27B685A80364BDB78BB7309
:101E64007B685B889AB2BB7B9BB213439AB27B6854
:101E74005A80304B1B79BB73BB7B1B061A467B68AD
:101E84005A602C4B5B79BB737B685B68BA7B12042A
:101E94001A437B685A60274B9B79BB737B685B68EA
:101EA400BA7B12021A437B685A60224BDB79BB73FC
:101EB4007B685A68BB7B1A437B685A601D4B1B7A4C
:101EC400BB737B68BA7B1A721A4B5B7ABB737B68F1
:101ED400BA7B5A72174B9B7A1B09BB737B68BA7B1C
:101EE4009A72144BDB7ABB73BB7B9BB21B029AB214
:101EF4007B689A810F4B1B7BBB737B689B899AB26F
:101F0400BB7B9BB213439AB27B689A81094B5B7B80
:101F14009B08BB737B68BA7B9A73064B5B7B03F0AD
:101F24000303BB737B68BA7BDA73FB7B18461037F9
:101F3400BD4680BD7000002080B584B000AF7860DD
:101F44000023FB73304B1B68032B03D12723FB7344
:101F5400FB7B54E02C4B1B68002B07D02A4B1B68DF
:101F6400012B03D0284B1B68022B47D17B68B3F5A8
:101F7400805F03D12723FB73FB7B40E07B68B3F5D1
:101F8400006F1ED1012000F0EFFE0346FB73FB7BC4
:101F9400002B33D11D4B01221A751C4B00221A60F1
:101FA4001A4B00225A60194B00229A60174B4FF4C7
:101FB4000062DA60154B00221A61144805F044FEF1
:101FC4001CE0002000F0D0FE0346FB73FB7B002BDB
:101FD40014D10E4B01221A750C4B00221A600B4BC4
:101FE40000225A60094B00229A60084B0022DA60F2
:101FF400064B00221A61054805F026FEFB7B1846B5
:102004001037BD4680BD00BF4800002054050020A5
:1020140080B584B000AF78600023FB730E4A7B6800
:1020240013600D4B07225A600B4B40229A600A4BF7
:102034000022DA60084B4FF480621A61064805F00A
:10204400C9FE072000F0AEFD0346FB73FB7B184678
:102054001037BD4680BD00BFF004002080B586B0B7
:1020640000AFF860B9601346FB800023FB753C4B5E
:1020740000221A703B4B00221A603B4B00221A606C
:102084003A4B0022DA623A4B1B68022B05D14FF41B
:102094000073FB80BB685B0ABB60FB88354A136036
:1020A400344B10225A60334B40229A60314B4FF428
:1020B40080621A612F4B0022DA602E4805F08AFEF6
:1020C400102000F06FFD0346FB75FB7D002B01D053
:1020D400FB7D40E0284B4FF0FF321A60FB88264A14
:1020E4005360254B90229A60234B0222DA60224BE4
:1020F40000221A61204B01225A611F4805F0D8FEC4
:102104001C4ABB6813601B4B11225A60194B4022B6
:102114009A60184B0022DA60164B4FF480621A6101
:10212400144805F057FE112000F03CFD0346FB75F2
:10213400FB7D002B01D0FB7D0DE04FF4807001216D
:1021440005F010FE012005F035FEFB88F8681946FD
:10215400FFF776F8FB7D18461837BD4680BD00BFF3
:1021640084000020880000208000002000800140BE
:1021740048000020F00400206C05002080B586B0E3
:1021840000AFF860B9603B601346FB800023FB7529
:102194004D4B00221A704D4B00221A604C4B012209
:1021A4001A604C4B0022DA624B4B1B68022B05D1A0
:1021B4004FF40073FB80BB685B0ABB60FB88474A33
:1021C4001360464B10225A60444B40229A60434BA2
:1021D4004FF480621A61414B0022DA603F4805F0F7
:1021E400F9FD102000F0DEFC0346FB75FB7D002B9F
:1021F40001D0FB7D63E0FB88384A1360374B102223
:102204005A60364B40229A60344B0022DA60334BDA
:102214004FF480621A61314805F0DCFD102000F0B3
:10222400C1FC0346FB75FB7D002B01D0FB7D46E022
:102234002B4B4FF0FF321A60FB883A6802FB03F322
:10224400274A5360264B90229A60254B0222DA607B
:10225400234B00221A61224B01225A61204805F0C7
:1022640027FE1E4ABB6813601C4B12225A601B4B8C
:1022740040229A60194B0022DA60184B4FF48062B6
:102284001A61164805F0A6FD122000F08BFC0346E7
:10229400FB75FB7D002B01D0FB7D10E04FF48070BB
:1022A400012105F05FFD012005F084FDFB883A68FB
:1022B40002FB03F3F8681946FEF7C2FFFB7D1846DC
:1022C4001837BD4680BD00BF840000208800002070
:1022D400800000200080014048000020F00400201D
:1022E4006C05002080B582B000AF0023FB7100BFF5
:1022F400FEF79CFF0346002B08D10B4B1B68002BF9
:1023040004D10A4B1B78DBB2002BF1D0074B1B78AE
:10231400DBB2002B03D0054B1B78DBB200E0FB796A
:1023240018460837BD4680BD880000208400002080
:1023340080B586B000AFF860B9601346FB80002317
:10234400FB753C4B00221A703B4B00221A603B4B3E
:1023540000221A603A4B0022DA623A4B1B68022BC5
:1023640005D14FF40073FB80BB685B0ABB60FB883C
:10237400354A1360344B10225A60334B40229A6022
:10238400314B4FF480621A612F4B0022DA602E48E1
:1023940005F020FD102000F005FC0346FB75FB7DD5
:1023A400002B01D0FB7D40E0274ABB681360264B1D
:1023B40018225A60244B40229A60234B0022DA6090
:1023C400214B4FF480621A611F4805F003FD182069
:1023D40000F0E8FB0346FB75FB7D002B01D0FB7D81
:1023E40023E01A4B4FF0FF321A60FB88174A536000
:1023F400164B90229A60154B0022DA60134B002290
:102404001A61124B01225A61104805F051FD4FF434
:102414008070012105F0A6FCFB88F8681946FEF7D8
:1024240049FF012005F0C6FCFB7D18461837BD4660
:1024340080BD00BF840000208800002080000020B0
:102444000080014048000020F00400206C050020BA
:1024540080B586B000AFF860B9603B601346FB807E
:102464000023FB755C4B00221A705C4B00221A603F
:102474005B4B01221A605B4B0022DA625A4B1B68E9
:10248400022B05D14FF40073FB80BB685B0ABB6071
:10249400FB88564A1360554B10225A60534B402216
:1024A4009A60524B4FF480621A61504B0022DA60FA
:1024B4004E4805F08FFC102000F074FB0346FB75BA
:1024C400FB7D002B01D0FB7D82E0494B1B681B0484
:1024D400464A1360454B37225A60444B40229A6067
:1024E400424B0022DA60414B4FF480621A613F484C
:1024F40005F070FC372000F055FB0346FB75FB7DAF
:10250400002B01D0FB7D63E0384A3B681360374BF6
:1025140017225A60354B40229A60344B0022DA600D
:10252400324B4FF480621A61304805F053FC172097
:1025340000F038FB0346FB75FB7D002B01D0FB7DCF
:1025440046E02A4ABB681360284B19225A60274B7D
:1025540040229A60254B0022DA60244B4FF48062BB
:102564001A61224805F036FC192000F01BFB0346D3
:10257400FB75FB7D002B01D0FB7D29E01D4B4FF04B
:10258400FF321A60FB883A6802FB03F3194A53606E
:10259400184B90229A60174B0022DA60154B0022E8
:1025A4001A61144B01225A61124805F081FC4FF460
:1025B4008070012105F0D6FB012005F0FBFBFB88B0
:1025C4003A6802FB03F3F8681946FEF773FEFB7DD5
:1025D40018461837BD4680BD8400002088000020BE
:1025E400800000200080014048000020F00400200A
:1025F4006C0000206C05002080B582B000AF002381
:10260400FB7100BFFEF712FE0346002B08D10D4BF1
:102614001B68002B04D10C4B1B78DBB2002BF1D0D0
:10262400094B1B78DBB2002B03D0074B1B78DBB2C2
:1026340004E040F2FF5005F069FDFB7918460837C5
:10264400BD4680BD880000208400002080B400AF17
:10265400064B5B6B03F44053002B01D0012300E0D5
:1026640000231846BD465DF8047B70470080014096
:1026740080B582B000AF0023FB71084B00229A6042
:10268400064B40F24C42DA600C2000F08BFA034611
:10269400FB71FB7918460837BD4680BD00800140B8
:1026A40080B586B000AF786039600023FB750023E5
:1026B4003B610023FB600023FB72594B5B681B0DDD
:1026C40003F02003002B03D12523FB75FB7DA3E03E
:1026D400544B5B68DBB20233534AB2FBF3F3FB6047
:1026E400002005F0CFFB034603F00073002B03D05A
:1026F4000E23FB75FB7D8FE04C4B1B68022B05D131
:102704007B685B0A7B603B685B0A3B60474B1B68EA
:10271400002B07D0454B1B68012B03D0434B1B6890
:10272400022B39D1424A7B681360414B20225A6004
:102734003F4B40229A603E4B0022DA603C4B4FF400
:1027440080621A613A4805F045FB202000F02AFA1D
:102754000346FB75FB7D002B01D0FB7D5CE0344A16
:102764003B681360324B21225A60314B40229A60FD
:102774002F4B0022DA602E4B4FF480621A612C48F2
:1027840005F028FB212000F00DFA0346FB75FB7DC4
:10279400002B01D0FB7D3FE0254B00221A60244B27
:1027A40026225A60224B40229A60214B0022DA6092
:1027B4001F4B4FF480621A611D4805F00BFB262065
:1027C40000F0F0F90346FB75FB7D002B01D0FB7D87
:1027D40022E000233B6102E03B6901333B61FB687B
:1027E4003A699A42F8D307F10B03184600F07CFBD0
:1027F4000346FB7506E007F10B03184600F074FB73
:102804000346FB75FB7D002B05D1FB7A072BF2D029
:10281400FB7A062BEFD0FB7D18461837BD4680BDEA
:102824004C00002000800140C0D40100480000207A
:10283400F004002080B584B000AF78600023FB73FF
:102844000D4A0E4B1B681B0493600B4B40F24D4228
:10285400DA600D2000F0A6F90346FB73FB7B002B26
:1028640001D0FB7B04E0044B5A697B681A60FB7B54
:1028740018461037BD4680BD008001406C00002022
:1028840090B585B000AF78600023FB720023FB6035
:10289400002005F0F7FA034603F00073002B03D081
:1028A4000E23FB72FB7ADCE0704B40221A606F4B04
:1028B40010225A606D4B40229A606C4B0022DA6001
:1028C4006A4B4FF480621A61684805F083FA10205D
:1028D40000F068F90346FB72FB7A002B01D0FB7A07
:1028E400BFE0634B1B681B04604A13605F4B3722D5
:1028F4005A605E4B40229A605C4B0022DA605B4B6C
:102904004FF480621A61594805F064FA372000F0E8
:1029140049F90346FB72FB7A002B01D0FB7AA0E055
:10292400544B4FF0FF321A60524B40225A60514BC5
:1029340060229A604F4B0222DA604E4B00221A61E9
:102944004C4B01225A614B4805F0B2FA474B002226
:102954001A60464B0D225A60444B40229A60434B06
:102964000022DA60414B4FF480621A613F4805F05F
:1029740031FA0D2000F016F90346FB72FB7A002BA6
:1029840001D0FB7A6DE01AE04FF4004005F0A2FBA1
:102994000346002B13D00023FB600AE0FB689B0076
:1029A4007A68D41805F0E4FA03462360FB6801331F
:1029B400FB60FB68072BF1D97B6820337B602E4BCF
:1029C4005A6B40F22A631340002BDDD0082005F037
:1029D40081FB0346002B06D0082005F097FB042357
:1029E400FB72FB7A3DE0022005F074FB0346002BEA
:1029F40006D0022005F08AFB0223FB72FB7A30E04A
:102A0400202005F067FB0346002B06D0202005F0AC
:102A14007DFB0623FB72FB7A23E04FF4007005F084
:102A240059FB0346002B07D04FF4007005F06EFBF2
:102A34000723FB72FB7A14E007E005F099FA0246DB
:102A44007B681A607B6804337B604FF4001005F0E8
:102A540041FB0346002BF0D140F2FF5005F056FB3A
:102A6400FB7A18461437BD4690BD00BFF004002021
:102A74006C0000206C0500200080014080B500AF90
:102A8400134B1B68012B0ED1124B00229A60114B81
:102A940040F24C42DA600C2000F084F803461A46F7
:102AA4000D4B1A7002E00C4B00221A704FF4807028
:102AB40005F058FB4FF48070002105F053F9074BE3
:102AC40001221A60044B1B78DBB2184680BD00BF9C
:102AD4008000002000800140840000208800002045
:102AE40080B582B000AF0023FB704FF480337B606D
:102AF40002E07B68013B7B607B68002B05D0802073
:102B040005F0E8FA0346002BF3D07B68002B03D1D1
:102B14000323FB70FB7804E040F2FF5005F0F6FA63
:102B2400FB7818460837BD4680BD00BF80B584B029
:102B340000AF0023FB714FF48033BB60184B5B6B19
:102B4400FB6005E0BB68013BBB60154B5B6BFB6046
:102B5400FB6803F04503002B02D1BB68002BF1D1C5
:102B6400BB68002B04D0FB6803F00403002B06D0E1
:102B74000323FB71042005F0C9FAFB790CE0FB6820
:102B840003F04003002B06D00023FB71402005F026
:102B9400BDFAFB7900E0FB7918461037BD4680BDCD
:102BA4000080014080B483B000AF0346FB7100BFD6
:102BB4000A4B5B6B03F04503002BF9D0074B40F243
:102BC400FF529A63054B5B69DBB203F00803DBB287
:102BD40018460C37BD465DF8047B70470080014001
:102BE40080B582B000AF0023FB70104B5B6B7B6041
:102BF40002E00E4B5B6B7B607B6803F04503002BAC
:102C0400F7D07B6803F00403002B06D00323FB708A
:102C1400042005F07BFAFB7804E040F2FF5005F055
:102C240075FAFB7818460837BD4680BD0080014020
:102C340080B582B000AF0023FB70164B5B6B7B60EA
:102C440002E0144B5B6B7B607B6803F04503002B55
:102C5400F7D07B6803F00403002B06D00323FB703A
:102C6400042005F053FAFB7810E07B6803F00103BD
:102C7400002B06D00123FB70012005F047FAFB78F6
:102C840004E040F2FF5005F041FAFB78184608379B
:102C9400BD4680BD0080014080B586B000AF0346CC
:102CA4003960FB710023FB742E4B5B6B7B6102E08C
:102CB4002C4B5B6B7B617B6903F04503002BF7D0E6
:102CC4007B6903F00403002B06D00323FB74042068
:102CD40005F01CFAFB7C40E07B6903F00103002B48
:102CE40006D00123FB74012005F010FAFB7C34E0CC
:102CF40005F0BAF803461A46FB79934203D0102331
:102D0400FB74FB7C29E040F2FF5005F0FFF9002042
:102D140005F0B8F8F860FB6803F46043002B06D1B3
:102D2400FB681B0C9AB23B681A80FB7C15E0FB68BD
:102D340003F40053002B01D013230EE0FB6803F4CB
:102D44008043002B01D0102307E0FB6803F4004309
:102D5400002B01D00F2300E0FB7C18461837BD463A
:102D640080BD00BF0080014080B586B000AF03463F
:102D7400FB710023FB750023FB6000233B610020F3
:102D840005F080F8034603F00073002B03D00E23F4
:102D9400FB75FB7D9FE0524B1B689AB207F10C0355
:102DA4001046194600F096F90346FB75FB7D002B8F
:102DB40001D0FB7D8FE0FB79012B46D13B6903F405
:102DC4008023002B3DD0464B1B681B04454A1360EF
:102DD400444B37225A60434B40229A60414B0022B5
:102DE400DA60404B4FF480621A613E4804F0F2FF0F
:102DF4003720FFF7D7FE0346FB75FB7D002B01D080
:102E0400FB7D68E0374B02221A60364B06225A607B
:102E1400344B40229A60334B0022DA60314B4FF43A
:102E240080621A612F4804F0D5FF0620FFF7BAFE2E
:102E34000346FB75FB7D002B01D0FB7D4BE0FB7D46
:102E440049E02523FB75FB7D45E03B6903F48033B2
:102E5400002B3DD0224B1B681B04224A1360214BDC
:102E640037225A601F4B40229A601E4B0022DA60C0
:102E74001C4B4FF480621A611A4804F0ABFF3720F0
:102E8400FFF790FE0346FB75FB7D002B01D0FB7D15
:102E940021E0144B00221A60124B06225A60114B97
:102EA40040229A600F4B0022DA600E4B4FF480628E
:102EB4001A610C4804F08EFF0620FFF773FE0346E8
:102EC400FB75FB7D002B01D0FB7D04E0FB7D02E064
:102ED4002523FB75FB7D18461837BD4680BD00BF12
:102EE4006C000020F004002080B586B000AF78604C
:102EF4000023FB7500233B610023FB60714B1B68BF
:102F04001B04714A1360704B0D225A606E4B4022B1
:102F14009A606D4B0022DA606B4B4FF480621A6149
:102F2400694804F057FF694B5B6BFB6002E0674B39
:102F34005B6BFB60FB6803F04503002BF7D0FB6879
:102F440003F00403002B06D00323FB75042005F0D3
:102F5400DDF8FB7DB2E0FB6803F00103002B06D033
:102F64000123FB75012005F0D1F8FB7DA6E004F0F8
:102F74007BFF0346FB60FB680D2B03D01023FB751E
:102F8400FB7D9BE040F2FF5005F0C0F8002004F008
:102F940079FF03463B613B695B0ADBB203F00F0335
:102FA400DAB27B681A703A69494B1340002B01D19D
:102FB400FB7D83E03B69002B01DA1C237EE03B6947
:102FC40003F08043002B01D0092377E03B6903F031
:102FD4000053002B01D00A2370E03B6903F08053B7
:102FE400002B01D00B2369E03B6903F00063002B45
:102FF40001D00C2362E03B6903F08063002B01D015
:103004000D235BE03B6903F08073002B01D00E239A
:1030140054E03B6903F40003002B01D00F234DE07F
:103024003B6903F48003002B01D0102346E03B6985
:1030340003F40013002B01D011233FE03B6903F498
:103044008013002B01D0122338E03B6903F40023E2
:10305400002B01D0132331E03B6903F48023002BC0
:1030640001D014232AE03B6903F40033002B01D080
:10307400152323E03B6903F48033002B01D016238E
:103084001CE03B6903F40043002B01D0172315E037
:103094003B6903F48043002B01D018230EE03B6905
:1030A40003F40053002B01D0192307E03B6903F01C
:1030B4000803002B01D01A2300E0FB7D18461837C3
:1030C400BD4680BD6C000020F0040020008001405B
:1030D40008E0FFFD90B587B000AF03463960FB8080
:1030E40000237B610023FB740023BB600023FB608F
:1030F400754B08221A60744B10225A60724B40229E
:103104009A60714B0022DA606F4B4FF480621A614F
:103114006D4804F05FFE1020FFF744FD0346FB7486
:10312400FB7C002B01D0FB7CCAE0684B1B681B04B2
:10313400654A1360644B37225A60634B40229A609D
:10314400614B0022DA60604B4FF480621A615E4882
:1031540004F040FE3720FFF725FD0346FB74FB7C9B
:10316400002B01D0FB7CABE0594B4FF0FF321A60CF
:10317400574B08225A60564B30229A60544B022215
:10318400DA60534B00221A61514B01225A615048B4
:1031940004F08EFE4C4B00221A604B4B33225A60D3
:1031A400494B40229A60484B0022DA60464B4FF468
:1031B40080621A61444804F00DFE3320FFF7F2FCEC
:1031C4000346FB74FB7C002B01D0FB7C78E012E00F
:1031D4004FF4001004F07EFF0346002B0BD07B69F4
:1031E4009B0007F10802D41804F0C2FE03462360D2
:1031F4007B6901337B61374B5A6B40F22A6313407E
:10320400002BE5D0082004F065FF0346002B06D010
:10321400082004F07BFF0423FB74FB7C50E00220B5
:1032240004F058FF0346002B06D0022004F06EFF82
:103234000223FB74FB7C43E0202004F04BFF034695
:10324400002B06D0202004F061FF0623FB74FB7CD6
:1032540036E04FF4007004F03DFF0346002B07D026
:103264004FF4007004F052FF0723FB74FB7C27E04B
:1032740040F2FF5004F04AFF3B680433BA68110679
:10328400BA6802F47F4212021143BA6802F47F0260
:10329400120A1143BA68120E0A431A60FB681A062E
:1032A400FB6803F47F431B021A43FB6803F47F03A8
:1032B4001B0A1A43FB681B0E1A433B681A60FB7C0B
:1032C40018461C37BD4690BDF00400206C00002059
:1032D4006C0500200080014080B485B000AF034637
:1032E400FB800023FB7305E0FB885B08FB80FB7B12
:1032F4000133FB73FB88012BF6D1FB7B1846143793
:10330400BD465DF8047B704780B483B000AF0346CC
:10331400FB71002318460C37BD465DF8047B7047EB
:1033240080B584B000AF0346FB71FB79002B01D05C
:10333400012309E0FEF74AF80346FB73FB7B002BED
:1033440001D0012300E0002318461037BD4680BD9C
:1033540080B584B000AFB9607A603B600346FB730C
:103364003B68012B11D97B685B02B86819464FF49E
:1033740000723B68FEF702FFFEF7B4FF00BFFEF7E2
:1033840079F80346002BFAD10FE07B685B02B8683A
:1033940019464FF40072FEF761FEFEF7A3FF00BF6B
:1033A400FEF768F80346002BFAD1002318461037BD
:1033B400BD4680BD80B584B000AFB9607A603B6023
:1033C4000346FB733B68012B11D97B685B02B86829
:1033D40019464FF400723B68FFF73AF8FFF70CF90F
:1033E40000BFFEF747F80346002BFAD10FE07B68D5
:1033F4005B02B86819464FF40072FEF799FFFEF7B6
:1034040071FF00BFFEF736F80346002BFAD1002304
:1034140018461037BD4680BD80B483B000AF034664
:103424003A60FB710B46BB71002318460C37BD464E
:103434005DF8047B704700BF80B400AF00231846DA
:10344400BD465DF8047B704780B487B000AFF86078
:10345400B9607A60FB687B61BB683B6107E07B69AC
:103464005A1C7A613A69511C396112781A707B6866
:103474005A1E7A60002BF2D11C37BD465DF8047BDE
:10348400704700BF80B487B000AFF860B9607A605D
:10349400FB687B6105E07B695A1C7A61BA68D2B229
:1034A4001A707B685A1E7A60002BF4D11C37BD4613
:1034B4005DF8047B704700BF80B489B000AFF8604A
:1034C400B9607A60FB68FB61BB68BB6100237B6108
:1034D40000BF7B685A1E7A60002B0DD0FB695A1C12
:1034E400FA611B781946BB695A1CBA611B78CB1A5E
:1034F4007B617B69002BECD07B6918462437BD4681
:103504005DF8047B704700BF80B483B000AF78607F
:10351400396002E07B6801337B607B681B78002B99
:1035240005D07B681B781A463B689A42F2D17B68C7
:103534001B7818460C37BD465DF8047B704700BF06
:1035440080B586B000AF78600023FB737B681B797D
:10355400002B36D07B68DB6A7B617B685A787B689A
:103564003033104619467A690123FFF723FF0346D7
:10357400002B02D00123FB7323E07B6800221A7125
:103584007B681B6A7A69D21A7B689B699A4218D253
:103594007B68DB783B6111E07B689B697A69134443
:1035A4007B617B685A787B683033104619467A69A8
:1035B4000123FFF7FFFE3B69013B3B613B69012BA4
:1035C400EAD8FB7B18461837BD4680BD80B584B069
:1035D40000AF786039600023FB737B68DA6A3B686C
:1035E4009A421CD07868FFF7ABFF0346FB73FB7B62
:1035F400002B14D17B685A787B6830331046194607
:103604003A680123FFF7A4FE0346002B04D04FF0D1
:10361400FF333B600123FB737B683A68DA62FB7B10
:1036240018461037BD4680BD80B584B000AF7860C1
:103634007868FFF785FF0346FB73FB7B002B40F0A4
:1036440094807B681B78032B40F083807B685B79D4
:10365400012B7ED17B683033184600214FF4007271
:10366400FFF710FF7B68552283F82E227B68AA227D
:1036740083F82F227B68522283F830207B68522201
:1036840083F831207B68612283F832207B684122F1
:1036940083F833207B68722283F814227B687222B9
:1036A40083F815227B68412283F816227B68612205
:1036B40083F817227B681B69DAB27B6883F81822C7
:1036C4007B681B699BB21B0A9BB2DAB27B6883F8E6
:1036D40019227B681B691B0CDAB27B6883F81A22F7
:1036E4007B681B691B0EDAB27B6883F81B227B683C
:1036F400DB68DAB27B6883F81C227B68DB689BB2E8
:103704001B0A9BB2DAB27B6883F81D227B68DB68F4
:103714001B0CDAB27B6883F81E227B68DB681B0E05
:10372400DAB27B6883F81F227B68DB695A1C7B68EA
:10373400DA627B6859787B6803F130027B68DB6A64
:10374400084611461A460123FFF734FE7B6800221F
:103754005A717B685B78184600210022FFF75CFEF3
:103764000346002B01D00123FB73FB7B1846103763
:10377400BD4680BD80B483B000AF786039603B68DB
:10378400023B3B607B685B699A1E3B689A4201D8A6
:10379400002308E07B689B781A463B6803FB02F22F
:1037A4007B689B6A134418460C37BD465DF8047B5E
:1037B400704700BF80B586B000AF786039603B6861
:1037C400012B04D97B685A693B689A4202D80123C9
:1037D4007B619DE04FF0FF337B617B681B78022B9C
:1037E40048D0032B68D0012B40F090803B683B61AC
:1037F4003B695B083A6913443B617B681A6A3B691D
:103804005B0A134478681946FFF7E0FE0346002B71
:1038140000D07DE03B695A1C3A61C3F308037A681F
:10382400134493F83030FB607B681A6A3B695B0A87
:10383400134478681946FFF7C9FE0346002B00D0ED
:1038440066E03B69C3F308037A68134493F83030A5
:103854001B021A46FB681343FB603B6803F0010339
:10386400002B02D0FB681B0902E0FB68C3F30B03C7
:103874007B614DE07B681A6A3B681B0A13447868D5
:103884001946FFF7A3FE0346002B00D040E03B6837
:103894005B0003F4FF7330337A681344BB60BB6886
:1038A40001331B781B029AB2BB681B789BB213438B
:1038B4009BB29BB27B612BE07B681A6A3B68DB0995
:1038C400134478681946FFF781FE0346002B00D0A5
:1038D4001EE03B689B0003F4FE7330337A681344A4
:1038E400BB60BB6803331B781A06BB6802331B78C2
:1038F4001B041343BA680132127812021343BA68E4
:103904001278134323F070437B6101E001237B6150
:103914007B6918461837BD4680BD00BF80B588B0A6
:1039240000AFF860B9607A60BB68012B04D9FB680A
:103934005A69BB689A4202D80223FB77E8E0FB6825
:103944001B78022B72D0032B00F09780012B40F0E0
:10395400DD80BB68BB61BB695B08BA691344BB61AA
:10396400FB681A6ABB695B0A1344F8681946FFF7D7
:103974002DFE0346FB77FB7F002B00D0C8E0BB691C
:103984005A1CBA61C3F308033033FA6813447B61E9
:10399400BB6803F00103002B0DD07B691B78DBB2FD
:1039A40003F00F03DAB27B68DBB21B01DBB2134313
:1039B400DBB2DBB201E07B68DBB27A691370FB68CF
:1039C40001221A71FB681A6ABB695B0A1344F8681E
:1039D4001946FFF7FBFD0346FB77FB7F002B00D066
:1039E40096E0BB69C3F308033033FA6813447B6180
:1039F400BB6803F00103002B03D07B681B09DBB217
:103A04000EE07B691B78DBB223F00F03DAB27B682C
:103A14001B0ADBB203F00F03DBB21343DBB2DBB2EE
:103A24007A691370FB6801221A7171E0FB681A6AE3
:103A3400BB681B0A1344F8681946FFF7C7FD034621
:103A4400FB77FB7F002B00D062E0BB685B0003F4D4
:103A5400FF733033FA6813447B617B68DAB27B69A5
:103A64001A707B6901337A6892B2120A92B2D2B2A6
:103A74001A70FB6801221A714AE0FB681A6ABB6873
:103A8400DB091344F8681946FFF7A0FD0346FB77EA
:103A9400FB7F002B00D03BE0BB689B0003F4FE736C
:103AA4003033FA6813447B617B6903331B781A064D
:103AB4007B6902331B781B0413437A690132127841
:103AC400120213437A691278134303F070437A683D
:103AD40013437B607B68DAB27B691A707B690133BC
:103AE4007A6892B2120A92B2D2B21A707B69023325
:103AF4007A68120CD2B21A707B6903337A68120E98
:103B0400D2B21A70FB6801221A7101E00223FB771A
:103B1400FB7F18462037BD4680BD00BF80B584B00A
:103B240000AF786039603B68012B04D97B685A691F
:103B34003B689A4202D80223FB733BE00023FB73E9
:103B440033E078683968FFF735FEB860BB68002B4E
:103B540000D12FE0BB68012B02D10223FB7329E0C3
:103B6400BB68B3F1FF3F02D10123FB7322E0786805
:103B740039680022FFF7D2FE0346FB73FB7B002B60
:103B840000D017E07B681B69B3F1FF3F0BD07B6863
:103B94001B695A1C7B681A617B685B7943F00103DB
:103BA400DAB27B685A71BB683B607B685A693B68D0
:103BB4009A42C6D8FB7B18461037BD4680BD00BF6D
:103BC40080B586B000AF786039603B68002B0DD1BA
:103BD4007B68DB683B613B69002B04D07B685A69D6
:103BE4003B699A421BD801233B6118E07868396825
:103BF400FFF7E0FDB860BB68012B01D8012370E03A
:103C0400BB68B3F1FF3F01D1BB686AE07B685A69C6
:103C1400BB689A4201D9BB6863E03B683B613B697E
:103C24007B617B6901337B617B685A697B699A425A
:103C340007D802237B617A693B699A4201D9002340
:103C44004FE078687969FFF7B5FDB860BB68002B71
:103C54000CD100BF786879696FF07042FFF75EFE9F
:103C64000346FB73FB7B002B1AD10FE0BB68B3F157
:103C7400FF3F02D0BB68012B01D1BB6831E07A69F8
:103C84003B699A4201D100232BE0CAE73B68002B31
:103C940006D0786839687A69FFF740FE0346FB73FB
:103CA400FB7B002B14D17B687A69DA607B681B6923
:103CB400B3F1FF3F14D07B681B695A1E7B681A61FD
:103CC4007B685B7943F00103DAB27B685A7107E0E1
:103CD400FB7B012B02D14FF0FF3300E001237B611A
:103CE4007B6918461837BD4680BD00BF80B586B0D5
:103CF40000AF786039603B689AB27B68DA807B6891
:103D04009B687B617B69012B05D07B681B685A69C2
:103D14007B699A4201D8022362E07B69002B08D1B7
:103D24007B681B681B78032B03D17B681B685B6A69
:103D34007B617B69002B0DD17B681B681B891A464C
:103D44003B689A4201D802234AE07B681B685B6A9D
:103D54003B612CE07B681B689B781B01FB601BE0CC
:103D64007B681B6818467969FFF724FD78617B69D5
:103D7400B3F1FF3F01D1012332E07B69012B05D967
:103D84007B681B685A697B699A4201D8022327E041
:103D94003A68FB68D31A3B603A68FB689A42DFD200
:103DA4007B681B6818467969FFF7E4FC38617B6817
:103DB4007A69DA603B69002B01D1022310E03B6889
:103DC4001A093B691A447B681A617B681A683B6864
:103DD40003F00F035B0130331A447B685A610023FC
:103DE40018461837BD4680BD90B587B000AF7860DF
:103DF40039607B68DB880133FB60FB689BB2002B76
:103E040003D07B681B69002B01D10423BAE0FB6853
:103E140003F00F03002B40F0A6807B681B695A1C3B
:103E24007B681A617B68DB68002B09D17B681B689F
:103E34001B891A46FB689A4200F295800423A1E08C
:103E4400FB681B097A6812689278013A1340002BC8
:103E540040F089807B681A687B68DB6810461946E5
:103E6400FFF7A8FC78617B69012B01D8022389E064
:103E74007B69B3F1FF3F01D1012383E07B681B68B9
:103E84005A697B699A4262D83B68002B01D10423AA
:103E940078E07B681A687B68DB6810461946FFF790
:103EA4008FFE78617B69002B01D107236AE07B696F
:103EB400012B01D1022365E07B69B3F1FF3F01D1FE
:103EC40001235FE07B681B681846FFF739FB034654
:103ED400002B01D0012355E07B681B683033184662
:103EE40000214FF40072FFF7CDFA7B681C687B68F1
:103EF4001B6818467969FFF73DFC0346E36200231B
:103F04003B6115E07B681B6801221A717B681B68A2
:103F14001846FFF715FB0346002B01D0012331E0BF
:103F24007B681B68DA6A0132DA623B6901333B6100
:103F34007B681B689B781A463B699A42E2D87B6887
:103F44001B687A681268D16A3A698A1ADA627B68ED
:103F54007A69DA607B681B6818467969FFF70AFC9E
:103F640002467B681A61FB689AB27B68DA807B68D8
:103F74001A68FB6803F00F035B0130331A447B6853
:103F84005A61002318461C37BD4690BD80B584B0E5
:103F940000AF7860396078680021FFF7A7FE034618
:103FA400FB73FB7B002B2DD10023BB607B681A685D
:103FB4007B681B6910461946FFF708FB0346FB7331
:103FC400FB7B002B00D01DE07B685B691B78E52B35
:103FD40004D07B685B691B78002B08D1BB68013374
:103FE400BB60BA683B689A4200D10BE001E0002351
:103FF400BB6078680121FFF7F7FE0346FB73FB7B88
:10400400002BD3D0FB7B042B01D10723FB73FB7B59
:1040140018461037BD4680BD80B485B000AF7860C7
:1040240039603B681B331B781B029AB23B681A3316
:104034001B789BB213439BB29BB2FB607B681B78DB
:10404400032B0FD13B6815331B781B029AB23B68D4
:1040540014331B789BB213439BB29BB21B04FA68C4
:104064001343FB60FB6818461437BD465DF8047BB8
:10407400704700BF80B483B000AF786039607B685C
:104084001A333A68D2B21A707B681B333A6892B218
:10409400120A92B2D2B21A707B6814333A68120CC4
:1040A400D2B21A707B6815333A68120C92B2120AB3
:1040B40092B2D2B21A700C37BD465DF8047B7047D9
:1040C40090B587B000AF786039603B681B331B78CC
:1040D4001B029AB23B681A331B789BB213439BB200
:1040E400002B01D0002364E03B681B7803F03F03FE
:1040F4005A1E13465B0013449B0013447B61012347
:10410400FB8100233B613EE02C4A3B6913441B784E
:1041140001333A6813441B781B0299B2274A3B695E
:1041240013441B781A463B6813441B789BB20A4617
:1041340013439BB2BB81FB89002B1AD07B69FE2BF6
:1041440012D8BB89184603F003F903461C467B6961
:104154005A1C7A615B007A6813441B88184603F082
:10416400F7F803469C4201D0002322E0BB89FB817F
:1041740006E0BB894FF6FF72934201D0002318E09A
:104184003B6901333B613B690C2BBDD93B681B7810
:1041940003F04003002B0BD0FB89002B08D07B6974
:1041A4005B007A6813441B88002B01D0002300E0D5
:1041B400012318461C37BD4690BD00BFAC9A0008C9
:1041C40080B487B000AF786039603B681B331B78DC
:1041D4001B029AB23B681A331B789BB213439BB2FF
:1041E400002B01D0002358E03B681B7803F03F0309
:1041F4005A1E13465B0013449B0013447B61012346
:10420400FB8100233B6133E0274A3B6913441B785D
:1042140001333A6813441B781B0299B2224A3B6962
:1042240013441B781A463B6813441B789BB20A4616
:1042340013439BB2BB81FB89002B0FD07B69FE2B00
:1042440001D9002329E07B695A1C7A615B007A68F2
:104254001344BA89FA81FA891A8006E0BB894FF6B9
:10426400FF72934201D0002317E03B6901333B61A5
:104274003B690C2BC8D93B681B7803F04003002B27
:104284000AD07B69FE2B01D9002306E07B695B0021
:104294007A68134400221A80012318461C37BD464D
:1042A4005DF8047B704700BFAC9A000880B489B005
:1042B40000AFF860B96011461A460B46FB7113460D
:1042C400BB71BB680D33BA791A70BB680B330F220C
:1042D4001A70BB680C3300221A70BB681A330022B0
:1042E4001A70BB681B3300221A70FB795A1E1346DE
:1042F4005B0013449B001344FB610023FB820023F7
:10430400BB61FB8A4FF6FF72934207D0FB695A1CCC
:10431400FA615B00FA6813441B88FB821C4ABB6980
:1043240013441B781A46BB681344FA8AD2B21A7033
:10433400174ABB6913441B780133BA681344FA8AD9
:10434400120A92B2D2B21A70FB8A002B02D14FF633
:10435400FF73FB82BB690133BB61BB690C2BD0D9F2
:10436400FB8A4FF6FF72934206D0FB695B00FA6842
:1043740013441B88002B03D1FB7943F04003FB71EA
:10438400BB68FA791A702437BD465DF8047B704720
:10439400AC9A000880B58CB000AFF860B9607A6060
:1043A4003B60F868B9680B22FFF74EF83B68052BB1
:1043B4002BD93B68FB6122E07B689A1C7A601B88DE
:1043C4007B840023BB6217E0FB695A007B8C03F0FB
:1043D40001031344FB617B8C5B087B84FB6903F45E
:1043E4008033002B05D0FB6983F4883383F02103E9
:1043F400FB61BB6A0133BB62BB6A0F2BE4D97B68E8
:104404001B88002BD8D1FB693B600723BB623B6848
:10441400DBB203F00F03DBB2303387F82F3097F8A9
:104424002F30392B04D997F82F30073387F82F30E2
:10443400BB6A5A1EBA6207F13002134497F82F2060
:1044440003F81C2C3B681B093B603B68002BDED146
:1044540007F11402BB6A13447E221A7000237B62A4
:1044640017E0FA687B6A13441B78802B0ED9FA682C
:104474007B6A13441B78FF2B08D0BB6A5A1E7B6AE5
:104484009A4200D10FE07B6A01337B627B6A01337D
:104494007B627A6ABB6A9A4205D2FA687B6A1344E1
:1044A4001B78202BDDD17B6A5A1C7A62FA681A4485
:1044B400BB6A072B08D8BB6A591CB96207F13001E3
:1044C4000B4413F81C3C00E0202313707B6A072B79
:1044D400E9D93037BD4680BD80B485B000AF78607F
:1044E4000023FB730B23BB60FB7BDAB25208DB01B6
:1044F4001343DAB27B68591C79601B781344FB734D
:10450400BB68013BBB60BB68002BEDD1FB7B18464D
:104514001437BD465DF8047B704700BF80B586B094
:1045240000AF786078680021FFF7E0FB0346FB7575
:10453400FB7D002B01D0FB7D9CE0FF233B753B7D85
:104544007B757B684FF6FF721A847B681A687B68F8
:104554001B6910461946FFF739F80346FB75FB7DC6
:10456400002B00D085E07B685B693B613B691B786D
:10457400BB75BB7D002B02D10423FB7579E03B693D
:104584000B331B7803F03F03FB73BB7DE52B07D094
:10459400FB7B03F00803002B09D0FB7B0F2B06D019
:1045A400FF237B757B684FF6FF721A8457E0FB7B11
:1045B4000F2B2FD17B68DB69002B50D0BB7D03F020
:1045C4004003002B0CD03B695B7B3B75BB7D23F028
:1045D4004003BB75BB7D7B757B68DA887B681A8476
:1045E400BA7D7B7D9A4212D13B690D331B783A7DAB
:1045F4009A420CD17B68DB6918463969FFF760FD84
:104604000346002B03D07B7D013BDBB200E0FF239C
:104614007B7524E07B7D002B08D13869FFF75CFFB4
:1046240003461A463B7D934200D122E07B689B6996
:104634000B331B7803F00103002B0AD17B689B69C1
:10464400386919460B22FEF737FF0346002B00D1C9
:104654000FE0FF237B757B684FF6FF721A8478683E
:104664000021FFF7C1FB0346FB75FB7D002B3FF4E4
:104674006CAFFB7D18461837BD4680BD80B586B04B
:1046840000AF78603960FF237B75FF233B750423FB
:10469400FB757EE07B681A687B681B6910461946C7
:1046A400FEF794FF0346FB75FB7D002B00D075E0FD
:1046B4007B685B693B613B691B78BB75BB7D002BE9
:1046C40002D10423FB7569E03B690B331B7803F0CB
:1046D4003F03FB73BB7DE52B0ED0BB7D2E2B0BD094
:1046E400FB7B23F02003082B0CBF01230023DBB248
:1046F4001A463B689A4202D0FF237B753FE0FB7B5E
:104704000F2B2BD1BB7D03F04003002B0CD03B6956
:104714005B7B3B75BB7D23F04003BB75BB7D7B7529
:104724007B68DA887B681A84BA7D7B7D9A4212D1D1
:104734003B690D331B783A7D9A420CD17B68DB6967
:1047440018463969FFF73CFD0346002B03D07B7DF7
:10475400013BDBB200E0FF237B7510E07B7D002B87
:1047640007D13869FFF7B8FE03461A463B7D9342EA
:1047740004D07B684FF6FF721A840FE00EE078686D
:104784000021FFF731FB0346FB75FB7D002B00D0B6
:1047940004E07B681B69002B7FF47CAFFB7D002B5E
:1047A40002D07B6800221A61FB7D18461837BD468B
:1047B40080BD00BF80B58CB000AF78607B689B691A
:1047C4003B627B68DB69FB6107F10C031846396ABD
:1047D4000C22FEF739FEFB7D03F00103002B35D0DC
:1047E4003B6A0B3300221A707B680022DA610123D2
:1047F400BB6215E007F10C03386A1946FA69BB6A13
:10480400FFF7C8FD7868FFF789FE034687F82F3065
:1048140097F82F30002B00D005E0BB6A0133BB6250
:10482400BB6A632BE6D9BB6A642B01D10723B3E0CF
:1048340097F82F30042B02D097F82F30ACE03B6A66
:104844000B33FA7D1A707B68FA69DA61FB7D03F039
:104854000203002B14D00023BB6202E0BB6A0133C5
:10486400BB62BB6A5B00FA6913441B88002BF5D159
:10487400BB6A19334A4AA2FB03239B087B6201E00B
:1048840001237B627868796AFFF780FB034687F827
:104894002F3097F82F30002B4AD17B6A013B7B6283
:1048A4007B6A002B44D07B68DB881A467B6AD31A68
:1048B40078681946FFF71AFA034687F82F3097F8F5
:1048C4002F30002B34D17B689B691846FFF704FE18
:1048D4000346FB767B681A687B681B691046194699
:1048E400FEF774FE034687F82F3097F82F30002B1D
:1048F40000D01DE07B68D8697B6859697B6ADAB2AD
:10490400FB7EFFF7D3FC7B681B6801221A71786871
:104914000021FFF769FA034687F82F3097F82F3004
:10492400002B05D17B6A013B7B627B6A002BD1D1D2
:1049340097F82F30002B2DD17B681A687B681B6990
:1049440010461946FEF742FE034687F82F3097F8C3
:104954002F30002B1ED17B685B6918460021202272
:10496400FEF790FD7B685A697B689B69104619467F
:104974000B22FEF769FD7B685B690C337A689269E8
:104984000B32127802F01802D2B21A707B681B68DC
:1049940001221A7197F82F3018463037BD4680BD72
:1049A4004FECC44E80B584B000AF78607B68DB8880
:1049B400BB607B681B8C4FF6FF72934202D07B680E
:1049C4001B8C00E0BB6878681946FFF78FF9034633
:1049D400FB73FB7B002B31D17B681A687B681B69F6
:1049E40010461946FEF7F2FD0346FB73FB7B002BD2
:1049F40000D01EE07B685B69184600212022FEF788
:104A040041FD7B685B69E5221A707B681B680122A3
:104A14001A717B68DB881A46BB689A4200D308E0A7
:104A240078680021FFF7E0F90346FB73FB7B002B5A
:104A3400D2D0FB7B042B01D10223FB73FB7B1846F2
:104A44001037BD4680BD00BF80B588B000AF786028
:104A540039603B680933BB617B681B69002B6FD0ED
:104A64007B685B69FB600023FB6132E0FB695A1CD5
:104A7400FA61FA6813441B78FB75FB7D202B00D187
:104A840027E0FB7D052B01D1E523FB75FB69092B91
:104A940004D1BB695A1CBA612E221A70FB7D402BCB
:104AA40012D9FB7D5A2B0FD8FB680C331B781A469E
:104AB400FB69082B01D9102300E008231340002BC5
:104AC40002D0FB7D2033FB75BB695A1CBA61FA7DA9
:104AD4001A70FB690A2BC9D9FB68DA7A3B681A7227
:104AE400FB681F331B781A06FB681E331B781B04F4
:104AF4001343FA681D32127812021343FA681C3207
:104B040012781A433B681A60FB6819331B781B023E
:104B14009AB2FB6818331B789BB213439BB29AB2C8
:104B24003B689A80FB6817331B781B029AB2FB68B8
:104B340016331B789BB213439BB29AB23B68DA805C
:104B4400BB6900221A703B689B69002B4ED000237E
:104B5400FB613B689B69BB617B681B69002B40D090
:104B64003B68DB69002B3CD07B681B8C4FF6FF72E3
:104B7400934236D07B68DB693B612AE07B89184627
:104B8400002102F087FB03467B817B89002B02D145
:104B94000023FB6125E07B89FF2B09D9FB695A1CA3
:104BA400FA61BA6913447A89120A92B2D2B21A70BB
:104BB4003B68DB695A1EFB699A4202D80023FB61F9
:104BC4000FE0FB695A1CFA61BA6913447A89D2B2BC
:104BD4001A703B699A1C3A611B887B817B89002B84
:104BE400CCD1BA69FB69134400221A702037BD4640
:104BF40080BD00BF80B58AB000AF786039603B6883
:104C04001B683B6102E03B6901333B613B691B78F4
:104C14002F2BF8D03B691B785C2BF4D07B68DB69C5
:104C2400FB6000237B617B69BB61BB695A1CBA6171
:104C34003A6913441B78BB84BB8C1F2B5AD9BB8C99
:104C44002F2B57D0BB8C5C2B54D07B69FE2B01D906
:104C54000623BBE1BB8CDBB2BB84BB8CDBB2802BF9
:104C640026D9BB8CDBB2FF2B22D0BB695A1CBA619C
:104C74003A6913441B7887F82730BB8C1B029AB21D
:104C840097F827309BB21344BB8497F827303F2B07
:104C940003D997F827307E2B0AD997F827305BB2CF
:104CA400002B03DA97F82730FF2B01D106238DE17F
:104CB400BB8C1846012102F0EDFA0346BB84BB8C81
:104CC400002B01D1062381E1BB8C7F2B09D8BB8C3F
:104CD40098481946FEF718FC0346002B01D006231A
:104CE40074E17B695A1C7A615B00FA681344BA8CDC
:104CF4001A809AE73A69BB691A443B681A60BB8C0C
:104D04001F2B01D8042300E0002387F8263012E08B
:104D14007B6903F10043013B5B00FA6813441B8881
:104D2400BB84BB8C202B03D0BB8C2E2B00D005E086
:104D34007B69013B7B617B69002BE9D17B69002B9B
:104D440001D1062342E17B695B00FA681344002227
:104D54001A807B689B69184620210B22FEF792FB80
:104D64000023BB6102E0BB690133BB61BB695B002B
:104D7400FA6813441B88202BF5D0BB695B00FA68E2
:104D840013441B882E2BEED0BB69002B05D097F85B
:104D9400263043F0030387F8263002E07B69013BA9
:104DA4007B617B69002B09D07B6903F10043013BE4
:104DB4005B00FA6813441B882E2BEFD100233B625F
:104DC400002387F827300823FB61BB695A1CBA61AA
:104DD4005B00FA6813441B88BB84BB8C002B00D196
:104DE400ACE0BB8C202B06D0BB8C2E2B0AD1BA692D
:104DF4007B699A4206D097F8263043F0030387F87C
:104E0400263096E03A6AFB699A4203D2BA697B6912
:104E14009A4224D1FB690B2B06D197F8263043F034
:104E2400030387F8263089E0BA697B699A4205D082
:104E340097F8263043F0030387F82630BA697B6974
:104E44009A4200D97AE07B69BB6108233B620B2359
:104E5400FB6197F827309B0087F8273069E0BB8C0B
:104E64007F2B10D9BB8C184602F072FA0346184601
:104E7400002102F00FFA0346BB8497F8263043F072
:104E8400020387F82630BB8CFF2B19D9FB695A1E05
:104E94003B6A9A4208D897F8263043F0030387F810
:104EA4002630FB693B6244E07B689A693B6A591C83
:104EB40039621344BA8C120A92B2D2B21A702FE039
:104EC400BB8C002B07D0BB8C1B481946FEF71CFB80
:104ED4000346002B08D05F23BB8497F8263043F0A9
:104EE400030387F826301BE0BB8C402B09D9BB8C0D
:104EF4005A2B06D897F8273043F0020387F8273057
:104F04000EE0BB8C602B0BD9BB8C7A2B08D897F89E
:104F1400273043F0010387F82730BB8C203BBB8448
:104F24007B689A693B6A591C39621344BA8CD2B2C1
:104F34001A704AE7BC9A0008C89A00087B689B6903
:104F44001B78E52B03D17B689B6905221A70FB69EA
:104F5400082B04D197F827309B0087F8273097F85F
:104F6400273003F00C030C2B05D097F8273003F0FF
:104F74000303032B05D197F8263043F0020387F887
:104F8400263097F8263003F00203002B17D197F848
:104F9400273003F00303012B05D197F8263043F0A3
:104FA400100387F8263097F8273003F00C03042BFE
:104FB40005D197F8263043F0080387F826307B683C
:104FC4009B690B3397F826201A700023184628375C
:104FD400BD4680BD80B584B000AF786039603B6861
:104FE4001B782F2B03D03B681B785C2B02D13B68CA
:104FF40001333B607B6800229A603B681B781F2B5F
:1050040009D878680021FEF771FE0346FB737B68BC
:1050140000225A613FE03B4678681946FFF7EAFDF3
:105024000346FB73FB7B002B00D034E07868FFF76A
:1050340075FA0346FB737B689B69DB7ABB73FB7B66
:10504400002B0BD0FB7B042B07D1BB7B03F00403A9
:10505400002B02D10523FB731DE01CE0BB7B03F096
:105064000403002B00D016E07B685B69BB60BB685F
:105074000B331B7803F01003002B02D10523FB73C1
:1050840009E07B681B681846B968FEF7C5FF02464D
:105094007B689A60BFE7FB7B18461037BD4680BD2E
:1050A40080B487B000AF78604FF0FF333B617B681A
:1050B4001B68002B31D07B681B687B6102E07B6935
:1050C40001337B617B691B781F2B03D97B691B78B8
:1050D4003A2BF4D17B691B783A2B1CD17B681B6873
:1050E400FB60FB685A1CFA601B78303BBB60BB68F2
:1050F400092B0ED8FA687B699A420AD1BB68002B47
:1051040007D1BB683B617B6901337B617B687A694A
:105114001A603B6902E000233B613B6918461C3777
:10512400BD465DF8047B704780B582B000AF7860FF
:1051340039607B6800221A717B684FF0FF32DA62B3
:1051440078683968FEF742FA0346002B01D003233E
:1051540043E07B6893F82F321B029AB27B6893F882
:105164002E329BB213439BB21BB21E4A934201D010
:10517400022332E07B6893F869301A067B6893F85F
:1051840068301B0413437A6892F8672012021343B1
:105194007A6892F86620134323F07F43124A9342BD
:1051A40001D1002319E07B6893F885301A067B68E7
:1051B40093F884301B0413437A6892F88320120214
:1051C40013437A6892F88220134323F07F43064AFC
:1051D400934201D1002300E0012318460837BD465D
:1051E40080BD00BF55AAFFFF4641540080B596B06C
:1051F40000AFF860B9601346FB71FB6800221A60C7
:10520400B868FFF74DFFF863FB6B002B01DA0B2343
:1052140092E29B4AFB6B52F82330BB63BB6B002BBF
:1052240001D10C2388E2FB68BA6B1A60BB6B1B7854
:10523400002B1AD0BB6B5B781846FEF765F8034663
:1052440087F8373097F8373003F00103002B0CD17F
:10525400FB79002B07D097F8373003F00403002BB9
:1052640001D00A2368E2002366E2BB6B00221A70B5
:10527400FB6BDAB2BB6B5A70BB6B5B781846FEF7FC
:105284004FF8034687F8373097F8373003F00103B7
:10529400002B01D003234FE2FB79002B07D097F8B2
:1052A400373003F00403002B01D00A2344E2002327
:1052B4003B65B86B396DFFF737FF034687F8573006
:1052C40097F85730012B56D100233B642AE03B6CFE
:1052D4001B0103F5DF733033BA6B13443B633B6B41
:1052E40004331B78002B12D03B6B0B331B781A064C
:1052F4003B6B0A331B781B0413433A6B0932127855
:10530400120213433A6B083212781A4300E0002267
:105314003B6C9B0007F158010B4443F8442C3B6C55
:1053240001333B643B6C032BD1D900233B643B6CBE
:10533400002B02D03B6C013B3B643B6C9B0007F1B0
:105344005802134453F8443C3B653B6D002B05D095
:10535400B86B396DFFF7E8FE034600E0022387F8D7
:10536400573097F85730002B05D03B6C01333B6422
:105374003B6C032BE1D997F85730032B01D1012360
:10538400DAE197F85730002B01D00D23D4E1BB6B41
:1053940093F83C301B029AB2BB6B93F83B309BB240
:1053A40013439BB21BB2B3F5007F01D00D23C3E1BD
:1053B400BB6B93F847301B029AB2BB6B93F8463031
:1053C4009BB213439BB29BB2FB64FB6C002B12D1C8
:1053D400BB6B93F857301A06BB6B93F856301B041B
:1053E4001343BA6B92F8552012021343BA6B92F826
:1053F40054201343FB64BB6BFA6C9A61BB6B93F848
:105404004020BB6BDA70BB6BDB78012B05D0BB6B28
:10541400DB78022B01D00D238EE1BB6BDB781A46BF
:10542400FB6C02FB03F3FB64BB6B93F83D20BB6B8B
:105434009A70BB6B9B78002B08D0BB6B9B781A4689
:10544400BB6B9B78013B1340002B01D00D2373E110
:10545400BB6B93F842301B029AB2BB6B93F841309A
:105464009BB213439BB29AB2BB6B1A81BB6B1B8971
:1054740003F00F039BB2002B04D00D235CE100BFAB
:105484008C000020BB6B93F844301B029AB2BB6BB8
:1054940093F843309BB213439BB29BB2BB64BB6C87
:1054A400002B12D1BB6B93F853301A06BB6B93F8E5
:1054B40052301B041343BA6B92F851201202134367
:1054C400BA6B92F850201343BB64BB6B93F83F3024
:1054D4001B029AB2BB6B93F83E309BB213439BB250
:1054E400FB85FB8D002B01D10D2325E1FA8DFB6C8F
:1054F4001344BA6B1289120992B21344BB62BA6C98
:10550400BB6A9A4201D20D2316E1BA6CBB6AD31A64
:10551400BA6B9278B3FBF2F37B627B6A002B01D106
:105524000D2309E1012387F857307B6A40F6F572B1
:10553400934202D9022387F857307B6A4FF6F572FB
:10554400934202D9032387F857307B6A9A1CBB6BBA
:105554005A61BB6B3A6DDA61FA8D3B6D1A44BB6BD1
:105564001A623A6DBB6A1A44BB6B9A6297F8573059
:10557400032B1ED1BB6B1B89002B01D00D23DBE059
:10558400BB6B93F85F301A06BB6B93F85E301B0459
:105594001343BA6B92F85D2012021343BA6B92F86C
:1055A4005C201A43BB6B5A62BB6B5B699B007B64D8
:1055B4001FE0BB6B1B89002B01D10D23BCE0BB6B2F
:1055C4001A6AFB6C1A44BB6B5A6297F85730022B69
:1055D40003D1BB6B5B695B000AE0BB6B5A69134682
:1055E4005B0013445A08BB6B5B6903F0010313446B
:1055F4007B64BB6B9A697B6C03F2FF135B0A9A4270
:1056040001D20D2398E0BB6B4FF0FF321A61BB6BE4
:105614001A69BB6BDA60BB6B80225A7197F85730FA
:10562400032B7AD1BB6B93F861301B029AB2BB6B2C
:1056340093F860309BB213439BB21BB2012B6CD125
:105644003B6D0133B86B1946FDF7C0FF0346002BD1
:1056540063D1BB6B00225A71BB6B93F82F321B02D0
:105664009AB2BB6B93F82E329BB213439BB21BB21C
:10567400334A934251D1BB6B93F833301A06BB6B58
:1056840093F832301B041343BA6B92F831201202A0
:105694001343BA6B92F8302013432A4A93423CD105
:1056A400BB6B93F817321A06BB6B93F816321B04C4
:1056B4001343BA6B92F8152212021343BA6B92F891
:1056C40014221343204A934227D1BB6B93F81B3215
:1056D4001A06BB6B93F81A321B041343BA6B92F885
:1056E400192212021343BA6B92F818221A43BB6BA5
:1056F4001A61BB6B93F81F321A06BB6B93F81E3208
:105704001B041343BA6B92F81D2212021343BA6BA3
:1057140092F81C221A43BB6BDA60BB6B97F85720D4
:105724001A700A4B1B8801339AB2084B1A80074B34
:105734001A88BB6BDA80002318465837BD4680BDF3
:1057440055AAFFFF525261417272416190000020DC
:1057540080B584B000AF78607B68FB60FB68002B89
:105764001AD0FB681B68002B16D0FB681B681B78DB
:10577400002B11D0FB681B68DA88FB689B889A426F
:105784000AD1FB681B685B781846FDF7BDFD03462C
:1057940003F00103002B01D0092300E00023184685
:1057A4001037BD4680BD00BF80B588B000AFF8603B
:1057B400B9601346FB71BB683B6107F110031846DF
:1057C400FFF76EFCF861FB69002B01DA0B2329E07B
:1057D400164AFB6952F82330BB61BB69002B02D027
:1057E400BB6900221A70FB68002B02D0FB68002200
:1057F4001A70FA680D49FB6941F82320FB68002BF5
:1058040002D0FB79012B01D000230BE007F10C023D
:1058140007F10803104619460022FFF7E7FC034688
:10582400FB75FB7D18462037BD4680BD8C000020EB
:1058340080B5ADF5147D00AF07F10C03186007F1D6
:1058440008031960FB1D1A7007F10C031B68002B79
:1058540001D10923ADE107F10C031B6800221A6092
:10586400FB1DFA1D127802F01F021A70FB1D1B7833
:1058740023F00103DBB207F5077107F108020846BC
:1058840011461A46FFF7B2FC034687F84F3297F8E1
:105894004F32002B40F08B8107F50473C7F8343284
:1058A40007F11003C7F8383207F108031B6807F53E
:1058B400077210461946FFF78DFB034687F84F32EF
:1058C400D7F83032C7F8483297F84F32002B06D158
:1058D400D7F84832002B02D1062387F84F32FB1D3C
:1058E4001B7803F01C03002B00F0D58097F84F328F
:1058F400002B16D097F84F32042B07D107F5077306
:105904001846FEF757FF034687F84F32FB1DFA1D72
:10591400127842F008021A70D7F83032C7F84832C9
:1059240014E0D7F848320B331B7803F01103002B33
:1059340003D0072387F84F3208E0FB1D1B7803F0E0
:105944000403002B02D0082387F84F3297F84F3214
:10595400002B40F0C180FB1D1B7803F00803002BD3
:1059640000F0BA80FDF768FDC7F84402D7F8483262
:105974000E33D7F84422D2B21A70D7F848320F3314
:10598400D7F8442292B2120A92B2D2B21A70D7F85D
:1059940048321033D7F84422120CD2B21A70D7F816
:1059A40048321133D7F84422120ED2B21A70D7F803
:1059B40048321633D7F84422D2B21A70D7F8483294
:1059C4001733D7F8442292B2120A92B2D2B21A70A2
:1059D400D7F848321833D7F84422120CD2B21A70CE
:1059E400D7F848321933D7F84422120ED2B21A70BB
:1059F400D7F848320B3300221A70D7F848321C33D8
:105A040000221A70D7F848321D3300221A70D7F8D2
:105A140048321E3300221A70D7F848321F3300224E
:105A24001A70D7F81C321846D7F84812FEF7F4FA61
:105A3400C7F84002D7F848020021FEF71BFBD7F84D
:105A44001C3201221A71D7F84032002B44D0D7F807
:105A54001C32DB6AC7F84432D7F81C321846D7F830
:105A64004012FEF75BF8034687F84F3297F84F323F
:105A7400002B31D1D7F81C32D7F84022013ADA6032
:105A8400D7F81C321846D7F84412FDF79FFD034699
:105A940087F84F3220E097F84F32002B1CD1D7F80B
:105AA40048320B331B7803F01003002B03D004237C
:105AB40087F84F3210E0FB1D1B7803F00203002B24
:105AC4000AD0D7F848320B331B7803F00103002BBC
